:020000040800F2
:1000000000800120711700089D1600089F16000847
:10001000A1160008A3160008A5160008000000009D
:10002000000000000000000000000000A71600080B
:10003000A916000800000000AB160008AD16000865
:10004000C1170008C1170008C1170008C117000830
:10005000C1170008C1170008C1170008C117000820
:10006000C1170008C1170008C1170008C117000810
:10007000C1170008C1170008C1170008C117000800
:10008000C1170008C1170008C117000800000000D0
:10009000000000000000000000000000C117000880
:1000A000C1170008C1170008C1170008C1170008D0
:1000B000C1170008C1170008C1170008C1170008C0
:1000C000C1170008C1170008C1170008C1170008B0
:1000D000C1170008C1170008C11700080000000080
:1000E000C1170008C1170008C11700080000000070
:1000F000000000000000000000000000C117000820
:1001000000000000C1170008C1170008C11700084F
:1001100000000000000000000000000000000000DF
:10012000C1170008C1170008C1170008C11700084F
:10013000C1170008000000000000000000000000DF
:10014000000000000000000000000000C1170008CF
:10015000C1170008C1170008C1170008C11700081F
:10016000C1170008C11700080000000000000000CF
:10017000000000000000000000000000000000007F
:1001800000000000C117000800000000000000008F
:04019000C11700088B
:1001A00010B5054C237833B9044B13B10448AFF3B1
:1001B00000800123237010BDE40100200000000036
:1001C000F86C000808B5034B1BB103490348AFF3B3
:1001D000008008BD00000000E8010020F86C000865
:1001E000034613F8012B002AFBD1181A0138704777
:1001F00001F0FF01102A2BDB10F0070F08D010F8D8
:10020000013B013A8B422DD010F0070F42B3F6D1DB
:10021000F0B441EA012141EA014122F007047FF0F4
:1002200000070023F0E80256083C85EA010586EA4B
:10023000010685FA47F5A3FA87F586FA47F6A5FA87
:1002400087F68EB9EED1F0BC01F0FF0102F0070293
:1002500032B110F8013B013A83EA010313B1F8D13E
:100260000020704701387047002D06BF354603381F
:10027000073815F0010F07D1013015F4807F02BF58
:10028000013015F4C03F0130F0BC0138704700BFA9
:1002900081F0004102E000BF83F0004330B54FEA37
:1002A00041044FEA430594EA050F08BF90EA020FA4
:1002B0001FBF54EA000C55EA020C7FEA645C7FEA37
:1002C000655C00F0E2804FEA5454D4EB5555B8BF5A
:1002D0006D420CDD2C4480EA020281EA030382EACB
:1002E000000083EA010180EA020281EA0303362D5D
:1002F00088BF30BD11F0004F4FEA01314FF4801C30
:100300004CEA113102D0404261EB410113F0004F41
:100310004FEA03334CEA133302D0524263EB4303F8
:1003200094EA050F00F0A780A4F10104D5F1200E96
:100330000DDB02FA0EFC22FA05F2801841F10001F1
:1003400003FA0EF2801843FA05F359410EE0A5F1C5
:1003500020050EF1200E012A03FA0EFC28BF4CF0F6
:10036000020C43FA05F3C01851EBE37101F00045AC
:1003700007D54FF0000EDCF1000C7EEB00006EEBB9
:100380000101B1F5801F1BD3B1F5001F0CD3490843
:100390005FEA30004FEA3C0C04F101044FEA44529A
:1003A00012F5800F80F09A80BCF1004F08BF5FEA21
:1003B000500C50F1000041EB045141EA050130BD01
:1003C0005FEA4C0C404141EB0101013C28BFB1F513
:1003D000801FE9D291F0000F04BF01460020B1FA5E
:1003E00081F308BF2033A3F10B03B3F120020CDA31
:1003F0000C3208DD02F1140CC2F10C0201FA0CF00F
:1004000021FA02F10CE002F11402D8BFC2F1200C73
:1004100001FA02F120FA0CFCDCBF41EA0C01904029
:10042000E41AA2BF01EB0451294330BD6FEA040472
:100430001F3C1CDA0C340EDC04F11404C4F120025D
:1004400020FA04F001FA02F340EA030021FA04F36F
:1004500045EA030130BDC4F10C04C4F1200220FAC6
:1004600002F001FA04F340EA0300294630BD21FA04
:1004700004F0294630BD94F0000F83F4801306BFCA
:1004800081F480110134013D4EE77FEA645C18BFBE
:100490007FEA655C29D094EA050F08BF90EA020F55
:1004A00005D054EA000C04BF1946104630BD91EA4D
:1004B000030F1EBF0021002030BD5FEA545C05D150
:1004C0004000494128BF41F0004130BD14F580048F
:1004D0003CBF01F5801130BD01F0004545F0FE4103
:1004E00041F470014FF0000030BD7FEA645C1ABF38
:1004F000194610467FEA655C1CBF0B46024650EA6F
:10050000013406BF52EA033591EA030F41F400219A
:1005100030BD00BF90F0000F04BF0021704730B520
:100520004FF4806404F132044FF000054FF00001F5
:1005300050E700BF90F0000F04BF0021704730B5B6
:100540004FF4806404F1320410F0004548BF40428B
:100550004FF000013EE700BF42004FEAE2014FEAE0
:1005600031014FEA02701FBF12F07F4393F07F4FBB
:1005700081F06051704732F07F4208BF704793F0BE
:100580007F4F04BF41F40021704730B54FF46074D1
:1005900001F0004521F000411CE700BF50EA0102D4
:1005A00008BF704730B54FF000050AE050EA01027D
:1005B00008BF704730B511F0004502D5404261EBED
:1005C00041014FF4806404F132045FEA915C3FF42E
:1005D000D8AE4FF003025FEADC0C18BF03325FEACB
:1005E000DC0C18BF033202EBDC02C2F1200300FA7C
:1005F00003FC20FA02F001FA03FE40EA0E0021FAA1
:1006000002F11444BDE600BF70B54FF0FF0C4CF48E
:10061000E06C1CEA11541DBF1CEA135594EA0C0F40
:1006200095EA0C0F00F0DEF82C4481EA030621EA7B
:100630004C5123EA4C5350EA013518BF52EA0335B6
:1006400041F4801143F4801338D0A0FB02CE4FF068
:100650000005E1FB02E506F00042E0FB03E54FF098
:100660000006E1FB03569CF0000F18BF4EF0010E90
:10067000A4F1FF04B6F5007F64F5407404D25FEA8C
:100680004E0E6D4146EB060642EAC62141EA55513F
:100690004FEAC52040EA5E504FEACE2EB4F1FD0C81
:1006A00088BFBCF5E06F1ED8BEF1004F08BF5FEAFF
:1006B000500E50F1000041EB045170BD06F00046B1
:1006C00046EA010140EA020081EA0301B4EB5C045E
:1006D000C2BFD4EB0C0541EA045170BD41F4801156
:1006E0004FF0000E013C00F3AB8014F1360FDEBF7B
:1006F000002001F0004170BDC4F10004203C35DA57
:100700000C341BDC04F11404C4F1200500FA05F3D9
:1007100020FA04F001FA05F240EA020001F000427A
:1007200021F0004110EBD37021FA04F642EB0601F0
:100730005EEA430E08BF20EAD37070BDC4F10C041A
:10074000C4F1200500FA04F320FA05F001FA04F2DE
:1007500040EA020001F0004110EBD37041F10001CA
:100760005EEA430E08BF20EAD37070BDC4F12005D5
:1007700000FA05F24EEA020E20FA04F301FA05F23D
:1007800043EA020321FA04F001F0004121FA04F2E5
:1007900020EA020000EBD3705EEA430E08BF20EAB5
:1007A000D37070BD94F0000F0FD101F000464000EF
:1007B00041EB010111F4801F08BF013CF7D041EA71
:1007C000060195F0000F18BF704703F00046520075
:1007D00043EB030313F4801F08BF013DF7D043EA46
:1007E0000603704794EA0C0F0CEA135518BF95EAFC
:1007F0000C0F0CD050EA410618BF52EA4306D1D183
:1008000081EA030101F000414FF0000070BD50EAA1
:10081000410606BF1046194652EA430619D094EA2B
:100820000C0F02D150EA013613D195EA0C0F05D115
:1008300052EA03361CBF104619460AD181EA030169
:1008400001F0004141F0FE4141F470014FF0000021
:1008500070BD41F0FE4141F4780170BD70B54FF0BC
:10086000FF0C4CF4E06C1CEA11541DBF1CEA13553C
:1008700094EA0C0F95EA0C0F00F0A7F8A4EB05041E
:1008800081EA030E52EA03354FEA013100F0888015
:100890004FEA03334FF0805545EA131343EA1263DE
:1008A0004FEA022245EA111545EA10654FEA002693
:1008B0000EF000419D4208BF964244F1FD0404F54C
:1008C000407402D25B084FEA3202B61A65EB0305A8
:1008D0005B084FEA32024FF480104FF4002CB6EB65
:1008E000020E75EB030E22BFB61A754640EA0C00E5
:1008F0005B084FEA3202B6EB020E75EB030E22BF25
:10090000B61A754640EA5C005B084FEA3202B6EB65
:10091000020E75EB030E22BFB61A754640EA9C0024
:100920005B084FEA3202B6EB020E75EB030E22BFF4
:10093000B61A754640EADC0055EA060E18D04FEAB2
:10094000051545EA16754FEA06164FEAC30343EA52
:1009500052734FEAC2025FEA1C1CC0D111F4801F1F
:100960000BD141EA00014FF000004FF0004CB6E718
:1009700011F4801F04BF01430020B4F1FD0C88BFB7
:10098000BCF5E06F3FF6AFAEB5EB030C04BFB6EBC2
:10099000020C5FEA500C50F1000041EB045170BDB5
:1009A0000EF0004E4EEA113114EB5C04C2BFD4EBE2
:1009B0000C0541EA045170BD41F480114FF0000E66
:1009C000013C90E645EA060E8DE60CEA135594EAE2
:1009D0000C0F08BF95EA0C0F3FF43BAF94EA0C0FE5
:1009E0000AD150EA01347FF434AF95EA0C0F7FF45A
:1009F00025AF104619462CE795EA0C0F06D152EAAE
:100A000003353FF4FDAE1046194622E750EA410691
:100A100018BF52EA43067FF4C5AE50EA41047FF4A2
:100A20000DAF52EA43057FF4EBAE12E74FF0FF3C07
:100A300006E000BF4FF0010C02E000BF4FF0010CD8
:100A40004DF804CD4FEA410C7FEA6C5C4FEA430C51
:100A500018BF7FEA6C5C1BD001B050EA410C0CBFA0
:100A600052EA430C91EA030F02BF90EA020F002002
:100A7000704710F1000F91EA030F58BF994208BF69
:100A800090422CBFD8176FEAE37040F00100704726
:100A90004FEA410C7FEA6C5C02D150EA013C07D17D
:100AA0004FEA430C7FEA6C5CD6D152EA033CD3D0C8
:100AB0005DF8040B704700BF8446104662468C46C2
:100AC0001946634600E000BF01B5FFF7B7FF0028F5
:100AD00048BF10F1000F01BD4DF808EDFFF7F4FF1E
:100AE0000CBF012000205DF808FB00BF4DF808EDA9
:100AF000FFF7EAFF34BF012000205DF808FB00BFCC
:100B00004DF808EDFFF7E0FF94BF012000205DF8ED
:100B100008FB00BF4DF808EDFFF7CEFF94BF0120A2
:100B200000205DF808FB00BF4DF808EDFFF7C4FF9B
:100B300034BF012000205DF808FB00BF4FEA410CE4
:100B40007FEA6C5C02D150EA013C0AD14FEA430CC7
:100B50007FEA6C5C02D152EA033C02D14FF0000004
:100B600070474FF0010070474FEA410212F5001242
:100B700015D211D56FF47873B3EB625212D94FEAE4
:100B8000C12343F0004343EA505311F0004F23FACE
:100B900002F018BF404270474FF00000704750EA23
:100BA000013005D111F0004008BF6FF000407047E0
:100BB0004FF00000704700BF4A0011D212F500123A
:100BC00011D20DD56FF47873B3EB62520ED44FEAA5
:100BD000C12343F0004343EA505323FA02F0704725
:100BE0004FF00000704750EA013002D14FF0FF3063
:100BF00070474FF0000070474FEA4102B2F1E04306
:100C000024BFB3F5001CDCF1FE5C0DD901F0004CF3
:100C10004FEAC0024CEA5070B2F1004F40EB830043
:100C200008BF20F00100704711F0804F21D113F16F
:100C30003872BCBF01F00040704741F480114FEAA8
:100C40005252C2F11802C2F1200C10FA0CF320FA31
:100C500002F018BF40F001004FEAC1234FEAD3234E
:100C600003FA0CFC40EA0C0023FA02F34FEA4303B8
:100C7000CCE77FEA625307D150EA01331EBF4FF041
:100C8000FE4040F44000704701F0004040F0FE405C
:100C900040F40000704700BF53B94AB9002908BFAB
:100CA00000281CBF4FF0FF314FF0FF3000F0A4B917
:100CB000ADF1080C6DE904CE00F03CF8DDF804E07D
:100CC000DDE9022304B0704738B500220023044652
:100CD0000D46FFF70BFF28B920462946BDE83840EE
:100CE00000F00AB8204605F1004100F005F8404246
:100CF00061EB410138BD00BFD0B50C4B0022064668
:100D00000F46FFF781FCFFF757FF0446FFF702FC91
:100D1000074B0022FFF778FC02460B463046394667
:100D2000FFF7BAFAFFF748FF2146D0BD0000F03DBB
:100D30000000F0412DE9F047089D04468C46002B49
:100D400040F083808A42174647D9B2FA82F242B114
:100D5000C2F1200024FA00F09140974040EA010CD3
:100D600094404FEA1748230CBCFBF8F61FFA87FEA5
:100D700008FB16C143EA014306FB0EF1994209D96B
:100D8000FB1806F1FF3080F01981994240F216817C
:100D9000023E3B445B1AA4B2B3FBF8F008FB1033ED
:100DA00044EA034400FB0EFEA64509D93C1900F1B4
:100DB000FF3380F00581A64540F2028102383C44B1
:100DC00040EA0640A4EB0E0400261DB1D4400023E7
:100DD000C5E900433146BDE8F08702B9FFDEB2FA4B
:100DE00082F2002A50D1CB1B4FEA174E1FFA87F828
:100DF0000126B3FBFEFC210C0EFB1C3341EA034130
:100E000008FB0CF38B4207D979180CF1FF3002D2A2
:100E10008B4200F2E9808446C91AA3B2B1FBFEF00E
:100E20000EFB101143EA014408FB00F8A04507D966
:100E30003C1900F1FF3302D2A04500F2D9801846D8
:100E4000A4EB080440EA0C40BFE78B4209D9002D0F
:100E500000F0B1800026C5E9000130463146BDE80A
:100E6000F087B3FA83F6002E4AD18B4202D3824236
:100E700000F2B880841A61EB030101208C46002D3A
:100E8000A8D0C5E9004CA5E7C2F1200320FA03F67B
:100E9000974001FA02F04FEA174ED9403043030C55
:100EA000B1FBFEF61FFA87F80EFB161143EA014369
:100EB00006FB08F1994204FA02F409D9FB1806F17D
:100EC000FF3C80F08D80994240F28A80023E3B4494
:100ED0005B1A81B2B3FBFEF00EFB103341EA034113
:100EE00000FB08F38B4207D9791800F1FF3C73D25D
:100EF0008B4271D902383944CB1A40EA064678E76A
:100F0000C6F1200C03FA06F422FA0CF31C4320FA73
:100F10000CF701FA06F34FEA144E21FA0CF11F43C5
:100F20003B0CB1FBFEF91FFA84F80EFB191143EAE2
:100F3000014109FB08FA8A4502FA06F200FA06F3B3
:100F400008D9611809F1FF3048D28A4546D9A9F17C
:100F500002092144A1EB0A01BFB2B1FBFEF00EFB76
:100F6000101147EA014700FB08F8B84507D9E7190F
:100F700000F1FF312ED2B8452CD90238274440EA7F
:100F80000940A7EB0807A0FB02894F45C646494622
:100F90001AD317D05DB1B3EB0E0267EB010707FA66
:100FA0000CFCF2404CEA0202F740C5E9002700269B
:100FB0003146BDE8F0872E4628460BE70646E9E6AF
:100FC0001846FDE64345E5D2B8EB020E69EB040195
:100FD0000138DFE70846D2E760468DE78146B9E78A
:100FE000664675E730464AE7ACF1020C394413E730
:100FF00002383C4424E700BF704700BF0D4BDA685D
:1010000022F08072DA60DA6842F08072DA600A4BAD
:101010001A6822F001021A601A6842F001021A608E
:1010200000225A6000BF00BF00BF5868B0FA80F0CD
:1010300040097047F0ED00E0001000E0034B198814
:10104000034B0246186800F05DBF00BF120200208B
:101050001C02002037B5094C0190656801F0CEF9FB
:10106000019B074AB0FBF2F0434301936368019A86
:101070005B1B9342FAD303B030BD00BF001000E009
:1010800040420F0038B50A4D0A4C298820680122D9
:1010900000F038FF1420FFF7DDFF206829880022C8
:1010A00000F030FFBDE838403C20FFF7D3BF00BF61
:1010B000100200201C0200202DE9F04F00F0080271
:1010C0002DED028B08EE102A414A424C1278060997
:1010D00006F0020B06F0040A83B0C0F3001306F01A
:1010E000080600F0010900F0020800F00407002AD9
:1010F0003AD0394D39492868098801934A4600F0A9
:1011000001FF374928680988424600F0FBFE35494F
:10111000286809883A4600F0F5FE334928680988AE
:1011200018EE102A00F0EEFE019B20681A462F4BA5
:10113000198800F0E7FE2E4B206819885A4600F007
:10114000E1FE2C4B20681988524600F0DBFE2A4B4A
:1011500019883246206800F0D5FE03B0BDEC028B42
:10116000BDE8F04FFFF78EBF204D206829881A4652
:1011700000F0C8FE1E4B206819885A46DFF874B08C
:1011800000F0C0FE5246DFF870A0BBF800102068E7
:1011900000F0B8FEBAF800102068324600F0B2FE47
:1011A000FFF770FF298820684A4600F0ABFE104B1D
:1011B00020681988424600F0A5FEBBF800102068A0
:1011C0003A4600F09FFE18EE102ABAF80010C1E768
:1011D000010000201802002014020020000200205C
:1011E0000202002004020020060200200802002063
:1011F0000A0200200C0200200E02002010B5044656
:101200000020FFF71BFF2046BDE81040FFF754BF4A
:1012100038B505460020FFF711FF0F4C0F4B206833
:10122000198805F0010200F06DFE0D4B2068198849
:10123000022200F067FE0B4B20681988002200F0A4
:1012400061FE094B20681988002200F05BFEBDE8B2
:101250003840FFF717BF00BF180200200802002027
:101260000A0200200C0200200E0200202DE9F047A7
:1012700015461C46BDF820A0BDF82490BDF8288076
:10128000BDF82C700646FFF7B9FE214B1E60214BBE
:101290001980214B1D80214B1C60214BA3F800A01D
:1012A000204BA3F80090204BA3F800801F4B1F8019
:1012B0001F4B00221A701F4B282414201C7000F0B2
:1012C000D1FA0320FFF7A4FF052000F0CBFA03209A
:1012D000FFF79EFF012000F0C5FA0320FFF798FFFB
:1012E000012000F0BFFA0220FFF792FF012000F07A
:1012F000B9FA2046FFF782FF0F20FFF77FFF01209A
:10130000FFF77CFFBDE8F047032000F0ABBA00BF59
:101310001C020020120200201002002018020020EF
:10132000080200200A0200200C0200200E02002009
:1013300001000020000000208020FFF75FBF0FB4F5
:1013400070B586B00AAA01AD52F8041B0092284677
:1013500002F0F6FD00242846FEF742FFA04201D924
:10136000102C04D106B0BDE8704004B070472E5D6B
:101370000120FFF763FE3046FFF79EFE0134EAE7E7
:1013800000B595B02C22002109A801F067F81422BD
:10139000002103A801F062F800221A4B0192196C97
:1013A00041F0805119641B6C174903F0805301937D
:1013B000019B02920B6823F4404343F400430B600B
:1013C0000B680E9203F440430293029B022308939E
:1013D00001201023CDE90B0308A800F099FD014678
:1013E00008B172B6FEE70F23CDE90330CDE9050061
:1013F000079003A800F066FF08B172B6FEE715B0CB
:101400005DF804FB00380240007000401FB50B215E
:1014100001220023CDE90012054803936946029397
:1014200000F0BCFB08B172B6FEE705B05DF804FB46
:10143000740200201FB50C2101220023CDE9001207
:10144000054803936946029300F0A8FB08B172B601
:10145000FEE705B05DF804FB74020020F0B58DB026
:1014600000F0D4F9FFF78CFF1422002107A800F048
:10147000F5FF00255A4B04951A6B5A485A4C42F016
:1014800004021A631A6B02F004020492049A05958E
:101490001A6B42F001021A631A6B02F00102059204
:1014A000059A06951A6B42F002021A631B6B03F051
:1014B000020306932A464FF43C71069B00F022FD7E
:1014C0002A464A48072100F01DFD01264FF43C73CF
:1014D000444807A9CDE90736CDE9095500F04AFC93
:1014E0000723424807A9CDE90736CDE9095500F0A1
:1014F00041FC3F4B3B4809954FF40061CDE9071390
:10150000102707A900F036FC3A46294607A800F044
:10151000A5FF384825614FF44033C4E900034FF07C
:101520000073A3604FF0805C4FF070632046C4E905
:101530000A3C257684F82050E560E66184F8305056
:10154000666100F0A3F908B172B6FEE70A230990BC
:1015500007A92046CDE9073600F020FB054608B173
:1015600072B6FEE740238022CDE902322023CDE986
:10157000007332461B4B1D481A4E1F4F0221FFF7C6
:1015800075FE1E48FFF7DBFEEB0720D401224FF467
:101590000071304600F0B6FCFFF738FF204600F03F
:1015A0001BFA4FF0FF31204600F0A1FA204600F070
:1015B000F1FA204600F080FAFFF7BEFE3846FFF74A
:1015C000BEFE4FF47A70013500F04CF9DCE70022E2
:1015D0004FF40071304600F095FCFFF72BFFDDE77C
:1015E0000038024000000240740200200004024063
:1015F00000001110002001401C6D0008106D000853
:1016000082B00C4B002100915A6C42F480425A6423
:101610005A6C02F480420092009A01911A6C42F0D6
:1016200080521A641B6C03F080530193019B02B03B
:10163000704700BF0038024010B5044688B014223D
:10164000002103A800F00AFF2268124B9A421FD122
:1016500003F58C3300220192596C0F4841F48071DC
:101660005964596C01F48071019101990292196BCE
:1016700041F0040119631B6B059203F0040302930C
:101680000721029B0323CDE9031303A900F072FB9A
:1016900008B010BD0020014000080240FEE7FEE750
:1016A000FEE7FEE7FEE770477047704700F0C8B8F6
:1016B0000120704708B500F0A7FE162303604FF025
:1016C000FF3008BD08B500F09FFE16230360FEE75B
:1016D00070B50E4614460025A54201DB204670BDBC
:1016E000AFF3008070550135F6E770B50E4614462D
:1016F0000025A54201DB204670BD705DAFF3008080
:101700000135F6E74FF0FF3070474FF400534B6060
:101710000020704701207047002070470B4B19686C
:1017200010B5024609B90A491960186809490A4CF6
:101730000244091B8A4206D900F066FE0C230360AE
:101740004FF0FF3010BD1A60FCE700BF2002002000
:10175000180300200080012000040000034AD2F892
:10176000883043F47003C2F88830704700ED00E021
:10177000DFF834D00D480E490E4A002302E0D45859
:10178000C4500433C4188C42F9D30B4A0B4C0023C9
:1017900001E013600432A242FBD3FFF7DFFF00F049
:1017A00039FEFFF75BFE704700800120000000203B
:1017B000E4010020F4710008E40100201803002077
:1017C000FEE7000038B50E4A0E4B054618784FF478
:1017D0007A73B3FBF0F31068B0FBF3F000F0B4FAE7
:1017E000044658B90F2D09D8024629464FF0FF305C
:1017F00000F078FA044B20461D6038BD0120FCE75C
:1018000004000020080000200C00002008B50B4B4D
:101810001A6842F400721A601A6842F480621A6010
:101820001A6842F480721A60032000F049FA00201E
:10183000FFF7C8FFFFF7E4FE002008BD003C0240B0
:10184000034A044B11681B780B441360704700BFB8
:101850000403002008000020014B1868704700BFF7
:101860000403002038B50446FFF7F6FF631C1CBFD5
:10187000054B1B78054618BFE418FFF7EDFF431B27
:10188000A342FAD338BD00BF0800002038B5044693
:10189000002800F09B80056C25B9FFF7CDFE65643C
:1018A00084F83C50236CDB0600F18E80236C23F41B
:1018B000885323F0020343F002032364444B5A6825
:1018C00022F440325A605A6861680A435A602368B9
:1018D00021695A6822F480725A605A6842EA0122E9
:1018E0005A605A68A16822F040725A605A680A43E6
:1018F0005A609A68E16822F400629A609A680A4322
:101900009A603449A26A8A4252D0996821F0706183
:10191000996099680A439A609A68E16A22F0405295
:101920009A609A680A439A609A6822F002029A6062
:101930009A68217E42EA41029A6094F82020002AA7
:101940003ED05A68616A42F400625A605A6822F4D2
:1019500060425A605A68013942EA41325A60DA6A92
:10196000E16922F47002DA62DA6A013942EA01526C
:10197000DA629A6822F400729A609A6894F83010D9
:1019800042EA41229A609A68616922F480629A6010
:101990009A68002042EA81229A606064236C23F0F6
:1019A000030343F001032364002384F83C3038BD73
:1019B0009A6822F070629A609A6822F04052B2E708
:1019C0005A6822F40062C9E70120EDE70120EEE742
:1019D000002301400100000F82B00023019390F822
:1019E0003C30012B5CD00123026880F83C309368C6
:1019F000D9070CD5936813F001031AD1026C42F099
:101A000010020264426C42F00102426446E09368B4
:101A1000254943F001039360244B1B68B3FBF1F3AA
:101A200003EB43030193019B002BE3D0019B013B9C
:101A3000F8E7036C23F4E06323F0010343F48073BD
:101A4000036453685B0541BF036C23F4405343F4C4
:101A500080530364036C13F480531CBF436C23F066
:101A6000060343646FF02201002380F83C301160CC
:101A70000F49496811F01F0109D1906810F04050DA
:101A800010D1936843F08043936002B070470949D6
:101A90008A4203D1906810F04050F2D01846F4E723
:101AA0000220F2E70846F0E740420F000400002061
:101AB000002301400020014090F83C30012B14D05D
:101AC00003689A6822F001029A609B68DB0707D4DA
:101AD000036C23F4885323F0010343F001030364F0
:101AE000002380F83C301846704702207047036896
:101AF0009A68520570B504460D460BD59B68DE0505
:101B000008D5036C43F020030364002380F83C30C5
:101B1000012070BDFFF7A0FE064623681A689107F2
:101B20000CD56FF012021A60226C42F4007222642B
:101B30009A6812F0405F17D00020EAE7681CEDD0E9
:101B400065B923681B6813F00203E6D1226C84F8A0
:101B50003C3042F0040222640320DAE7FFF77CFE07
:101B6000801BA842EDD8D8E7207E0028E4D1DA6AAD
:101B700012F4700F02D09B685A05DDD4236C23F455
:101B800080732364236CDB04D6D4236C43F00103FD
:101B90002364BEE70368D86C70470000F7B50023E4
:101BA000019390F83C30012B66D0012380F83C3043
:101BB0000D6803688E68092DACB231D904EB44027C
:101BC000DF681E3A4FF0070C0CFA02FC27EA0C07FC
:101BD000DF60DF6806FA02F23A43DA6049680629F4
:101BE00001EB81022CD8596B053A1F26964021EA59
:101BF00006015963596B04FA02F20A435A632C4AEC
:101C0000934207D1122D39D1D2F8043343F4800323
:101C1000C2F80433002380F83C30184603B0F0BD0E
:101C20001F6905EB45024FF0070C0CFA02FC27EA8E
:101C30000C071F611F6906FA02F23A431A61CDE7E9
:101C40000C294FF01F010BD81E6B233A914026EA56
:101C500001011963196B04FA02F20A431A63CEE711
:101C6000DE6A413A914026EA0101D962D96A04FA52
:101C700002F20A43DA62C2E70220CFE7A5F11003BD
:101C8000012BC7D80B4A5368102D43F4000353604F
:101C9000C0D1094B094A1B68B3FBF2F20A23534334
:101CA0000193019B002BB5D0019B013BF8E700BFDE
:101CB00000200140002301400400002040420F00AA
:101CC0000749CA6822F4E0620302120403F4E063E5
:101CD000120C134343F0BF6343F40033CB607047EF
:101CE00000ED00E0164B30B5DC68C4F30224C4F10B
:101CF0000705231D042D28BF0425062B4FF0FF33B5
:101D00008CBF033C002403FA05F521EA0501A3403A
:101D100022EA0302A140002841EA0203ACBF00F11D
:101D20006040084A4FEA0313B8BF00F00F00DBB26F
:101D3000AABF00F56140135480F8003330BD00BFE6
:101D400000ED00E014ED00E00138B0F1807F0AD230
:101D5000064B074A5860F02182F823100020072222
:101D600098601A6070470120704700BF10E000E0E3
:101D700000ED00E02DE9F74FDFF884915E4A002383
:101D80000D6801249C4004EA050CAC4340F0A4809B
:101D90004D6805F003044FEA43080326671E06FA60
:101DA00008F6012F6FEA060634D8876807EA060EA0
:101DB000CF6807FA08F747EA0E078760476827EAFF
:101DC0000C0EC5F300179F4047EA0E074760C7682F
:101DD00007EA060E8F6807FA08F747EA0E07022C93
:101DE000C76019D14FEAD30A00EB8A0A03F0070B48
:101DF000DAF820704FEA8B0B4FF00F0E0EFA0BFE45
:101E000027EA0E0E0F6907FA0BF747EA0E07CAF822
:101E1000207001E0032CDAD1076804FA08F43E4090
:101E20002643EC00066057D54FF0000ACDF804A019
:101E3000D9F84460314C46F48046C9F84460D9F87A
:101E4000446006F480460196019E23F0030606F1E5
:101E5000804606F59C3603F0030ED6F808804FEA5C
:101E60008E0E0F2707FA0EF7A04228EA07073AD08E
:101E700004F58064A04238D004F58064A04236D0D6
:101E800004F58064A04234D004F58064A0420CBF05
:101E90000424072404FA0EF43C43B46014686FEA87
:101EA0000C06EF0354BF34404CEA04041460546839
:101EB000AF0354BF34404CEA040454609468EF020A
:101EC00054BF34404CEA04049460D468AD0254BF5B
:101ED00034404CEA0404D4600133102B7FF450AF3B
:101EE00003B0BDE8F08F5446D4E70124D2E70224C2
:101EF000D0E70324CEE700BF003C014000000240D1
:101F0000003802400AB1816170470904FBE7000014
:101F10002DE9F341044640B30368DD0710D423687C
:101F200098075ED423681A0700F1A08023685B0736
:101F300000F1BE80A069002840F01F8100202BE046
:101F4000A64B9A6802F00C02042A07D09A6802F0A5
:101F50000C02082A0BD15A68510208D59F4B1B6806
:101F60009A03DCD56368002BD9D1012014E06268A4
:101F7000B2F5803F13D11A6842F480321A60FFF73D
:101F80006BFC964E054633689B03C8D4FFF764FC90
:101F9000401B6428F7D9032002B0BDE8F0818F4DC3
:101FA000B2F5A02F2B6807D143F480232B602B6858
:101FB00043F480332B60E2E723F480332B602B68FB
:101FC00023F480232B60002AD9D1FFF745FC064675
:101FD0002B689F03A3D5FFF73FFC801B6428F7D92C
:101FE000D9E77E4B9A6812F00C0F07D09A6802F07E
:101FF0000C02082A11D15B685E020ED4774B1A6876
:10200000950702D5E268012AAFD11A68216922F04A
:10201000F80242EAC1021A6084E7E268704BB2B18A
:1020200001221A60FFF718FC6C4D06462B689807D2
:1020300007D52B68226923F0F80343EAC2032B601B
:1020400070E7FFF709FC801B0228EFD9A3E71A60AD
:10205000FFF702FC614E0546336899077FF562AFD2
:10206000FFF7FAFB401B0228F6D994E762695D4B43
:102070007AB101221A60FFF7EFFB584E0546736FE5
:102080009F073FF553AFFFF7E7FB401B0228F6D948
:1020900081E71A60FFF7E0FB504E0546736F980723
:1020A0007FF544AFFFF7D8FB401B0228F6D972E753
:1020B0004A4B1A6C12F0805228D101921A6C42F0ED
:1020C00080521A641B6C03F080530193019B01271B
:1020D000454D2B68D9051BD5A368404D012B27D151
:1020E0002B6F43F001032B67FFF7B6FB3B4E054612
:1020F00041F28838336F9B0739D5002F3FF41AAF70
:10210000364A136C23F08053136413E70027DFE78C
:102110002B6843F480732B60FFF79EFB06462B6809
:10212000DA05D9D4FFF798FB801B0228F7D932E7EC
:10213000052B04D12B6F43F004032B67D0E72A6FE4
:1021400022F001022A672A6F22F004022A67002B7C
:10215000CAD1FFF781FB41F2883806462B6F9807FA
:10216000CBD5FFF779FB801B4045F7D913E7FFF785
:1021700073FB401B4045BDD90DE7184DAB6803F01C
:102180000C03082B47D0194E00230228336035D1A9
:10219000FFF762FB07462B68990129D4D4E907327F
:1021A0001343626A43EA8213E26A43EA0263A26A61
:1021B0005208013A43EA02436B6001233360FFF7A0
:1021C0004BFB064D04462B689A013FF5B7AEFFF76F
:1021D00043FB001B0228F6D9DDE600BF00380240B1
:1021E00000004742800E47420070004060004742B6
:1021F000FFF732FBC01B0228CDD9CCE6FFF72CFB42
:1022000004462B689B017FF599AEFFF725FB001B69
:102210000228F6D9BFE601283FF4BEAE6B68E2693A
:1022200003F4800191427FF4A0AE216A03F03F02E3
:102230008A427FF49AAE616A47F6C0721A40B2EBE6
:10224000811F7FF492AEA26A520803F44031013A32
:10225000B1EB024F7FF489AEE26A03F07063B3EB37
:10226000026F3FF46BAE80E6134908B58B6803F04C
:102270000C03042B1CD0082B1CD14A684B684968FE
:1022800013F4800314BF0D480D48C1F3881118BF23
:10229000002302F03F02A1FB0001FEF7FDFC064B0C
:1022A0005B68C3F3014301335B00B0FBF3F008BD8F
:1022B0000248FCE70248FAE70038024040787D0116
:1022C0000024F4002DE9F0410D46044610B9012028
:1022D000BDE8F081444B1A6802F007028A4228D315
:1022E000226897072DD4D00741D43F4B1A6802F0DB
:1022F0000702AA4266D8226851076CD4130707D593
:102300003A4A2169936823F4604343EAC103936026
:10231000FFF7AAFF354B364A9B68C3F30313D35C20
:10232000D840344B1860344B1868FFF74BFA002044
:10233000CEE7CAB21A701B6803F007038B42C6D1FE
:10234000CEE72A4B12F0040F1EBF996841F4E0510A
:102350009960160742BF996841F46041996023492A
:10236000A0688B6823F0F00303438B60BBE76268CF
:102370001E4B012A1CD11B6813F4003FA7D01B4E33
:10238000B36823F003031343B360FFF765FA41F228
:1023900088380746B368626803F00C03B3EB820F1A
:1023A000A3D0FFF759FAC01B4045F3D903208FE7AC
:1023B000911E01291B6802D813F0007FDEE713F09D
:1023C000020FDBE7EAB21A701B6803F00703AB42A7
:1023D0007FF47DAF8FE70549E0688B6823F4E05315
:1023E00003438B608AE700BF003C02400038024094
:1023F0001F6D0008040000200C000020014B18682D
:10240000704700BF04000020014B1868704700BFF0
:102410001000002070B50D4D0D4C641BA41000265B
:10242000A64209D10B4D0C4C04F066FC641BA410B1
:102430000026A64205D170BD55F8043B98470136E9
:10244000EEE755F8043B98470136F2E7EC710008D7
:10245000EC710008EC710008F071000802440346BA
:10246000934200D1704703F8011BF9E72DE9FF47BC
:1024700055EC104B002D0E4619462B46BBBF05F1FF
:1024800000431D4600232D230B700D9BDDF830A06B
:10249000914623F02008BCBF22461446B8F1460FEF
:1024A00005D0B8F1450F00D10136022100E003212B
:1024B00003AB019302AB009345EC104B53463246FD
:1024C00001F0D6FDB8F1470F074602D119F0010F10
:1024D00022D0B8F1460F07EB060910D13B78302B1C
:1024E0000AD10022002320462946FEF7F5FA18B942
:1024F000C6F10106CAF80060DAF8003099440022FB
:10250000002320462946FEF7E7FA08B1CDF80C90E3
:102510003022039B4B4507D3039B0E9ADB1B3846A7
:10252000136004B0BDE8F087591C03911A70F0E7FE
:10253000F7B503460029B8BF494203F8022BB4BFE0
:102540002D222B22092942702ADD0DF10704A44611
:102550000A27A6460A4691FBF7F607FB1615303503
:10256000632A04F1FF340EF8015C3146F1DC3031AE
:10257000AEF1020504F8011C441C294661450AD34A
:102580000DF10902A2EB0E02654588BF002213443B
:10259000181A03B0F0BD11F8012B04F8012FEDE774
:1025A000302330318370C170031DF1E72DE9F04F06
:1025B0002DED028B8DB00C46DDF8608016461F466F
:1025C000054602F0B1FED0F800A05046FDF708FE27
:1025D00000230A9323680593D8F8003094F818B0C4
:1025E000073323F0070303F10802C8F80020D3E9FA
:1025F0000023C4E91223D4E9128929F00043079388
:10260000CDF8188008EE100A9F4BDDE906014FF067
:10261000FF32FEF793FA88BBDDE906019A4B4FF0D3
:10262000FF32FEF76DFA48BB0022002340464946C0
:10263000FEF75CFA10B12D2384F84330934B944895
:10264000BBF1470F94BF9846804603232361059B47
:1026500023F0040222604FF00009009733460BAAD2
:102660002146284600F0D8F9013040F090804FF024
:10267000FF300DB0BDEC028BBDE8F08F42464B46FB
:1026800040464946FEF75AFA40B14B46002BBCBFC4
:102690002D2384F843307F487F4BD1E763680BF0EC
:1026A000DF0206925A1C3FD106236360059B6168D6
:1026B00043F48062002303930AABCDE901B309AB75
:1026C00049EC108B009322600DF123032846FFF79D
:1026D000CDFE069B0999472B804608D1C81C02DB1A
:1026E0006368994241DDABF1020B5FFA8BFBBBF1F2
:1026F000650F20D801395A4604F150000991FFF7BF
:1027000017FF0A9A1318012A8146236102DC226806
:10271000D20701D5013323619DF82330002B9CD0D3
:102720002D2384F8433098E7069A472ABED1002B20
:10273000BCD10123B9E7BBF1660F18D1002963684A
:102740000BDD216113B92268D00702D501330B4498
:102750002361A1654FF00009DEE713B92268D207B3
:1027600001D50233F4E70123F2E74FF0670B0A9B30
:10277000994205DB23682161D807EAD54B1CE7E7BE
:102780000029D4BFC1F1020201221344E0E723680B
:102790005A0507D42369424631462846B8470130D6
:1027A0002CD164E7BBF1650F40F2E080D4E912015F
:1027B00000220023FEF790F9002834D0374A012385
:1027C00031462846B84701303FF451AFDDE90923CF
:1027D0009A4202DB2368D80710D518EE103A524609
:1027E00031462846B84701303FF441AF4FF000086A
:1027F00004F11A090A9B013B434509DC23689B0746
:1028000000F10581E0680B9B9842B8BF184630E79D
:1028100001234A4631462846B84701303FF427AFE6
:1028200008F10108E6E7099B002B39DC1B4A01236C
:1028300031462846B84701303FF419AFDDE9092396
:10284000134302D12368D907D8D518EE103A52465F
:1028500031462846B84701303FF409AF4FF0000930
:1028600004F11A0A099B5B424B4501DC0A9B92E783
:102870000123524631462846B84701303FF4F7AEAF
:1028800009F10109EEE700BFFFFFEF7F346D00089B
:10289000386D0008406D00083C6D0008446D00086C
:1028A0000A9AA36D9A42A8BF1A46002A914637DCBD
:1028B0004FF0000B29EAE97904F11A02A36D0593A0
:1028C000A3EB09035B4533DCDDE909239A423BDBDB
:1028D0002368DA0738D40A9A059B0999D31AA2EB20
:1028E00001099945A8BF9946B9F1000F35DC4FF0B1
:1028F000000829EAE97904F11A0ADDE909239B1A9B
:10290000A3EB090343457FF779AF012352463146D4
:102910002846B84701303FF4AAAE08F10108ECE7B9
:102920001346314642462846B8470130C0D19EE69C
:102930000123314628460592B84701303FF497AE4F
:10294000059A0BF1010BB9E718EE103A52463146E1
:102950002846B8470130BED189E6059A4B46424425
:1029600031462846B8470130C1D180E60A9A012A8B
:1029700001DCDB0738D50123424631462846B847FB
:1029800001303FF474AE18EE103A524631462846F4
:10299000B84701303FF46BAED4E9120100220023A6
:1029A000FEF79AF8D8B90A9B08F10102013B3146BB
:1029B0002846B84701300ED159E601235246314628
:1029C0002846B84701303FF452AE08F101080A9B8F
:1029D000013B4345F1DC4B4604F15002DCE64FF08D
:1029E000000804F11A0AF2E701234246DFE7012357
:1029F0004A4631462846B84701303FF438AE08F120
:102A00000108E3680B995B1A4345F0DCFAE64FF0E6
:102A1000000804F11909F4E72DE9F0471646994634
:102A20008A680B69DDF820809342B8BF1346336093
:102A300091F8432007460C460AB1013333602368FE
:102A4000990642BF336802333360256815F00605E6
:102A500006D104F1190AE36832689B1AAB4226DCFE
:102A600094F84320131E226818BF012392062BD42A
:102A700004F1430249463846C04701301ED023685E
:102A8000E568326803F00603042B08BFAD1AA3689B
:102A900022690CBF25EAE57500259342C4BF9B1A45
:102AA000ED1800261A34B5421AD1002008E001239F
:102AB000524649463846C047013003D14FF0FF30F7
:102AC000BDE8F0870135C6E7E1185A1C302081F8CF
:102AD0004300224494F8451082F843100233C7E7BC
:102AE0000123224649463846C0470130E6D0013628
:102AF000D9E700002DE9FF470C469146277E0C9947
:102B0000782F80469A4604F1430207D8622F0AD8EC
:102B1000002F00F0D880582F00F0A38004F1420667
:102B200084F842703AE0A7F16303152BF6D801A0B0
:102B300050F823F08D2B0008A12B00081D2B000856
:102B40001D2B00081D2B00081D2B0008A12B0008C1
:102B50001D2B00081D2B00081D2B00081D2B000835
:102B6000AD2C0008D12B00088F2C00081D2B00086D
:102B70001D2B0008CF2C00081D2B0008D12B0008AE
:102B80001D2B00081D2B0008972C00080B681A1D30
:102B90001B680A6004F1420684F842300123A3E076
:102BA000256808682E0600F104030AD505680B6045
:102BB000002D03DA2D236D4284F843305E480A234A
:102BC00019E015F0400F05680B6018BF2DB2EFE754
:102BD0000B682568181D0860280601D51D6802E0ED
:102BE0006906FBD51D8854486F2F0CBF08230A23A4
:102BF000002184F843106668A660002EA2BF2168F9
:102C000021F0040121600DB9002E4DD01646B5FB10
:102C1000F3F103FB1157C75D06F8017D2F46BB4258
:102C20000D46F4D9082B0BD12368DF0708D523699B
:102C300061689942DEBF302306F8013C06F1FF3699
:102C4000921B2261CDF800A04B4603AA21464046C4
:102C5000FFF7E2FE01304CD14FF0FF3004B0BDE889
:102C6000F087354884F8457023680E681F0656F8CB
:102C7000045B0E6014D5D90744BF43F020032360E2
:102C80001DB9236823F0200323601023B0E72368D5
:102C900043F0200323607823284884F84530E3E795
:102CA0005E0648BFADB2E6E71646BBE70B6826688E
:102CB00060691D1D0D6035061B6801D5186002E0B6
:102CC0007106FBD51880002323611646BAE70B680E
:102CD0001A1D0A601E68626800213046FDF788FAF6
:102CE00008B1801B606063682361002384F843306F
:102CF000A8E72369324649464046D0470130ABD069
:102D000023689B0713D4E068039B9842B8BF18461A
:102D1000A4E70123324649464046D04701309BD0C4
:102D20000135E36803995B1AAB42F2DCEBE700255F
:102D300004F11906F5E700BF466D0008576D00085D
:102D40002DE9F04F87B0174603938B685A1EB2F5F2
:102D5000AE7F83BF6FF4AE755B190293002386BF0D
:102D600040F25D138B6002930B688B46002543F4A1
:102D7000F0634BF81C3BCDE9045580460C465E469B
:102D8000AA46A9460195A26852B13B681B784E2B12
:102D900064D8402B3CD8A3F12B01C8B20E283AD9F5
:102DA000B9F1000F03D0236823F4807323600AF184
:102DB000FF3ABAF1010F00F213815E4500F205817E
:102DC0000125284607B0BDE8F08FA3F161020D2A66
:102DD000E6D801A151F822F0172F0008A12D000814
:102DE000A12D0008A12D0008772F00084F2F000803
:102DF000A12D0008A12D0008252F0008A12D0008F5
:102E0000A12D0008A12D0008A12D0008DD2E00082D
:102E1000A3F14102DBE70E29C2D801A050F821F04E
:102E2000CF2E0008A12D0008CF2E0008632F000828
:102E3000A12D00087D2E0008B92E0008B92E00082B
:102E4000B92E0008B92E0008B92E0008B92E0008C6
:102E5000B92E0008B92E0008B92E00086E2B09D82B
:102E6000602BB2D8542B77D0592B99D1072D97D1FD
:102E7000082529E0742B6FD0792BF6E72168C80567
:102E80001AD5029B21F08001216009F101091BB1D3
:102E9000013B01320293A260A368013BA360236956
:102EA000013323617B68013B002B7B6040F384800E
:102EB0003B6801333B6066E71AEB050F7FF470AFA8
:102EC000226822F4C072226006F8013BE4E722681F
:102ED00010067FF565AF22F08002F4E7BAF1000F2B
:102EE0000ED1B9F1000F0ED1226802F4E061B1F504
:102EF000E06F08D122F4F06222604FF0010AE3E7AC
:102F0000BAF1020F55D0012D02D0042D7FF448AF45
:102F10000135EDB2D8E7BAF1010F7FF441AF4FF0C0
:102F2000020AD1E77DB9B9F1000F7FF43CAF226806
:102F300002F4E061B1F5E06F7FF439AF22F4F062A2
:102F400022600125C0E7032DE2D0052DDEE7022D2A
:102F50007FF426AF0325B7E7062D7FF421AF0725C1
:102F6000B2E7226891057FF51BAF22F42072226040
:102F7000CDF80490A8E7226802F4A061B1F5806F53
:102F800006D050057FF50CAFB9F1000F3FF40FAF3D
:102F9000910558BF019922F4F06258BFA9EB0101D5
:102FA00042F4C07258BFCDE9041622604FF0000908
:102FB0008AE74FF0030A87E7D4F880313946404664
:102FC000984700283FF4DFAEEAE6D4F87C3116F8E3
:102FD000011D3A46404698472369013B2361ECE6D0
:102FE0006B1E062B25D8022D36D85E457FF6E8AE3F
:102FF000D4F87C3116F8011D3A46404698472369BB
:10300000013B2361F1E70298D4F87C3110F8011DEF
:1030100002903A46404698472369013B23610AF1F2
:10302000FF3A5FFA8AFABAF1020FECD1033DEDB232
:10303000761B2368DA052FD55B0510D55E457FF634
:10304000BFAED4F87C3116F8011D3A464046984789
:103050002369013B2361F1E7AA460296DFE716F8F0
:10306000011C2369652903F1FF3306F1FF35236154
:103070000CD045290AD0D4F87C313A4640469847CE
:10308000236916F8021C013BB51E2361D4F87C317C
:103090003A46404698472E46256815F0100558D107
:1030A0003570236803F4C063B3F5806F1CD1019BB6
:1030B0004B45A3EB090224D100225946404600F0BB
:1030C0009DFE039B21681B6811F0020F57EC106BEB
:1030D00003F1040220D003990A601B68C3E900676A
:1030E000E3680133E3606CE6049B002BE4D00599B0
:1030F0000A232A460131404600F00AFF049B059E40
:10310000C21A04F26F139E4228BF04F5B776124923
:10311000304600F02BF8CFE711F0040F03990A6056
:10312000DBD1D3F8008010EE102A10EE100A3B46D7
:103130003946FDF703FD28B1084800F011F888ED85
:10314000000ACDE730463946FDF756FDC8F80000C5
:10315000C6E7002535E600BF686D000880710008ED
:103160009FED010A704700BF0000C07F0EB400B59C
:103170009CB01DAB029006906FF00041094807918A
:103180000491094953F8042B05910068019302A9A1
:1031900002F0C6FE029B00221A701CB05DF804EB20
:1031A00003B07047100000200802FFFF70B504460E
:1031B0000D4645EC104B164602F04EFC51EC100B40
:1031C0007EB1C5F30A53C3F16B03002B09DD1B0568
:1031D00003F17F55002405F5401522462B46FDF7E7
:1031E00013FA70BD000000002DE9F04FA3B01F4698
:1031F00000231E93A44B19921B680793044618469C
:103200008846FCF7EDFF4FF0000A05464FF0000B33
:10321000CDF874801D9B1A782B2A4CD039D80D2AF2
:1032200032D8082A32D8002A3CD000230E931D9EA3
:103230003378302B40F0B480737803F0DF03582BE1
:103240006CD10E9B01931EAB029700938F4A1FAB6C
:103250001DA9204601F060FD10F00707054605D0C6
:10326000062F2AD1013600231D960E93199B002BA1
:1032700040F096850E9BDBB152460BF1004343ECC8
:10328000102B23B0BDE8F08F202ACED101331D933F
:10329000C0E72D2AC9D101220E925A1C1D925B78DB
:1032A000002BC4D1199BCDF87480002B40F076859B
:1032B00052465B46E3E70022EEE71E9A3AB135211B
:1032C00020A802F0D4FC1E99204602F099F8013F94
:1032D000052F07D8DFE807F00E0B181D0E034FF07F
:1032E000000BDA462807C1D54BF0004BBEE7DDE9FD
:1032F00020ABF7E7DDE920A31F9A23F4801302F245
:10330000334243EA025BEDE7DFF884B14FF0000A95
:10331000E8E76FF0004B4FF0FF3AE3E71D9B5A1CC4
:103320001D925B78302BF9D0002B9FD001234FF0FA
:10333000000904931D9B0A93CDF824904F460A225E
:103340001D980678A6F13003D9B209292AD9079920
:103350002A4602F0FDFE98B3002033463D46079012
:103360000246652B01D0452B18D11DB9049B0343A0
:1033700098D00025DDF8748008F101031D9398F8BA
:1033800001302B2B75D02D2B7BD04FF0000CA3F1EF
:103390003001092940F28280CDF8748000269DE03A
:1033A0000023C4E7082FD8BF099900F10100DABF54
:1033B00002FB0133099302FB093901371D90BFE776
:1033C0001D9B5A191D925B5D002F37D007903D461B
:1033D000A3F13002092A12D90122C2E71D9B5A1C0F
:1033E0001D925B780130302BF8D0A3F13102082A0E
:1033F00000F2DB841D9A079000200A920546303BBC
:1034000000F1010214D00799114407912A4600EBFC
:10341000050E0A21724513D12A18082A05F1010563
:1034200005441CDC09990A2202FB0133099300229E
:103430001D9B591C1D915B781046C9E73846D2E7A1
:10344000082A04DC099E4E4309960132E2E702F1A4
:10345000010CBCF1100FD8BF01FB09F9F5E7102DE5
:10346000DCBF0A2202FB0939E1E7002307930122AE
:103470007CE74FF0000C08F102031D9398F802302E
:1034800085E74FF0010CF6E7C06F0008706D00088B
:103490000000F07F1D9B591C1D915B78302BF9D0EB
:1034A000A3F1310108293FF679AFA3F1300E1D9B3E
:1034B00008931D9B591C1D915B78A3F13006092EC2
:1034C00037D9089E891B082944F61F6602DC764519
:1034D000A8BF7646BCF1000F00D07642002D4FD138
:1034E000049901437FF4C2AE002A7FF4DBAE692B5E
:1034F00027D024DC492B24D04E2B7FF4D3AE9E4919
:103500001DA801F061FE00283FF4CCAE1D9B1B7886
:10351000282B2DD1994920AA1DA801F069FE052864
:1035200026D1219BDDF880A043F0FF4B4BF4E00B4C
:103530009CE60A2101FB0E3EAEF1300EB9E76E2B80
:10354000DBE78F491DA801F03FFE00283FF4AAAE3B
:103550001D9B8C49013B1DA81D9301F035FE10B940
:103560001D9B01331D93DFF82CB24FF0000A7DE65E
:10357000854802F0D5FD8DED040BDDE904AB75E661
:10358000079B0998F31A002F08BF2F46102D0893A8
:10359000A846A8BF4FF01008FCF7BCFF092D8246D3
:1035A0008B4613DD794B03EBC80353E91223FDF778
:1035B0002BF8824648468B46FCF7ACFF02460B468A
:1035C00050465946FCF76AFE82468B460F2D38DC82
:1035D000089B002B3FF44AAE24DD162B0BDC6B4D11
:1035E00005EBC305D5E9000152465B46FDF70CF833
:1035F00082468B463AE6089AC5F12503934220DBC2
:10360000624CC5F10F0504EBC50152465B46D1E99A
:103610000001FCF7F9FF089B5D1B04EBC504D4E92E
:103620000023E3E7089B16330BDB079B574A9E1BDF
:1036300002EBC606D6E9002350465946FDF70EF9BF
:10364000D6E7089BA5EB08089844B8F1000F71DD98
:1036500018F00F030AD04D4901EBC30152465B46F7
:10366000D1E90001FCF7D0FF82468B4638F00F0805
:103670004DD0B8F59A7F22DD00252E460995079595
:103680002223DFF810B123604FF0000A099B002BC2
:103690003FF4ECAD1E99204601F0B2FE079920469A
:1036A00001F0AEFE3146204601F0AAFE09992046FF
:1036B00001F0A6FE2946204601F0A2FED6E5002331
:1036C0004FEA2818504659469946B8F1010F21DCB7
:1036D0000BB182468B462E4BABF1547B03EBC909F1
:1036E00052465B46D9E90001FCF78EFF294B0A469A
:1036F0000B4029498B428246BED8A1F580118B42EE
:1037000086BFDFF898B04FF0FF3A02F1547B0023F8
:10371000049381E018F0010F07D01D4B03EBC903A0
:10372000D3E90023FCF770FF012309F101094FEAF7
:103730006808CAE7EBD0C8F1000818F00F020AD0F9
:10374000124B03EBC20350465946D3E90023FDF761
:1037500085F882468B465FEA2818D8D0B8F11F0F4B
:103760001EDD00252E460995079522234FF0000AFD
:103770004FF0000B236089E7416D0008846D00085D
:10378000396D0008C46E0008807100086070000880
:10379000387000080000F07F0000A07CFFFFEF7F82
:1037A00018F0100318BF6A23DFF8B493049350464F
:1037B0005946002318F0010F04D0D9E90023FCF783
:1037C00023FF01235FEA680809F10809F2D10BB170
:1037D00082468B46049BBBB1CBF30A53C3F16B0308
:1037E000002B594610DD1F2B40F32881342BDEBF00
:1037F000203B4FF0FF3202FA03F34FF0000ACCBF38
:103800004FF05C7B03EA010B00220023504659462F
:10381000FDF762F90028A4D1099B00930A992B4671
:103820003A46204601F058FE099000283FF424AFA4
:10383000079B9E1B089B002BB4BF334600231093AD
:10384000089B002523EAE37318932E46099B204624
:10385000596801F095FD079000283FF411AF099BCE
:103860001A69023203F10C0192000C3001F07AFD6A
:103870004BEC10AB20AA1FA92046CDE90AAB02F001
:1038800067F91E9000283FF4FBAE0121204601F0AD
:10389000BDFE064600283FF4F3AE1F9B0499002BA3
:1038A000ABBF109A189A189FDDF84090ACBF03EB9D
:1038B0000209D71A209AA3EB01089044A34B08F100
:1038C000FF389845C2F1360280F2CC80A3EB0803A2
:1038D0001F2BA2EB03024FF0010100F3B68001FAA7
:1038E00003F3119300230C9309EB0208049BC145D9
:1038F00017441F444B46A8BF4346BB42A8BF3B46A4
:10390000002BC2BFA8EB0308FF1AA9EB0309109B09
:10391000002B17DD31461A46204601F033FF0646DC
:1039200000283FF4ADAE01461E9A204601F084FE09
:103930000F9000283FF4A4AE1E99204601F060FDD0
:103940000F9B1E93B8F1000F00F39180089B002B92
:1039500008DD189A0799204601F014FF0790002807
:103960003FF48EAE002F08DD07993A46204601F05D
:1039700063FF079000283FF483AEB9F1000F08DD24
:1039800031464A46204601F057FF064600283FF4DC
:1039900077AE079A1E99204601F0D6FF054600280B
:1039A0003FF46EAEC3680F930023C360314601F04D
:1039B000AFFF002865DA0F9B53EA0A0340F08780C7
:1039C000CBF31303002B40F082802BF000431B0D40
:1039D0001B05B3F1D66F7AD96B6913B92B69012B2B
:1039E00075DD29460122204601F026FF31460546B5
:1039F00001F08EFF00286ADD0499554A5B460029D4
:103A000000F0858002EA0B01B1F1D66F7FDCB1F1E5
:103A10005C7F7FF7AAAE4F4A0023CDE916325046AD
:103A2000DDE916235946FCF7EFFD0B46034308BFBB
:103A3000222382468B4608BF23602BE64FF0FF32DD
:103A400002FA03F303EA0A0ADEE6C8F17F4808F542
:103A50007F0808F57B4808F1E20801FA08F30C93A7
:103A6000119141E700230C93012311933CE71E9928
:103A70004246204601F0E0FE1E9000287FF466AF2B
:103A8000FEE55F466ED10F9ACBF3130342B3324A81
:103A9000934228D1049B5046EBB12D4A3A40B2F1F3
:103AA000D46F4FF0FF3119D8120DC2F16B0301FA38
:103AB00003F3984217D1294B9F4202D101303FF4C2
:103AC000DFAD234B3B4003F5801B4FF0000A049B06
:103AD000002BA0D1DEE54FF0FF33EAE70B46E8E725
:103AE00053EA0A0388D00C9BDBB13B42EFD00F9B1B
:103AF000049A50465946C3B1FFF758FB02460B469D
:103B0000DDE90A01FCF7CAFB82468B46DFE713407A
:103B1000A3F580136FEA135B6FEA0B5B4FF0FF3A7C
:103B2000D5E7119B13EA0A0FE0E7FFF73FFB0246D8
:103B30000B46DDE90A01FCF7AFFB002200238246B9
:103B40008B46FCF7C9FF0028C1D00EE602FCFFFF40
:103B50000000F07F00005039FFFF0F00FFFFEF7FF4
:103B6000986D00083146284602F04EF859EC108B4B
:103B700010EE100A00224FF080434946FCF7C0FFC8
:103B800000287CD00F9B002B4CD0954B0022CDE918
:103B90000C23DFF84C924FF00008924B3B401193FE
:103BA000119A914B9A4240F0B280DDE90A23DDE997
:103BB0000C01A7F1547B4BEC10ABCDE91623CDE9FA
:103BC0000C0101F049FFDDE90C0153EC102BFCF76F
:103BD0001BFD52465B46FCF761FB0B468149834A5D
:103BE0001940914282465ED90B9B02F15472934276
:103BF00003D10A9B01333FF443ADDFF8FCB14FF032
:103C0000FF3A1E99204601F0FBFB0799204601F080
:103C1000F7FB3146204601F0F3FB2946204601F030
:103C2000EFFB13E6BAF1000F1BD1CBF31303F3B98B
:103C30006B4B002240464946FCF758FFD0B940463E
:103C400049466B4B0022FCF7DFFC8046894609F1B0
:103C50000043CDF868801B93DDE91A23CDE90C23DE
:103C60009BE7BAF1010F02D1002F3FF47EAD614B0B
:103C700000228CE7DFF878914FF00008E7E75C4B13
:103C8000404649460022FCF7BFFC0F9B8046894610
:103C900033B901F1004312901393DDE91223DDE7FC
:103CA000CDE91289F9E703F1547B049B002BA8D1DD
:103CB0002BF00043119A1B0D1B059A42A1D14046DF
:103CC0004946FDF701F8FCF771FC02460B464046F9
:103CD0004946FCF7E1FA0F9ACBF3130343EA0A03D0
:103CE00013438046894653D035A3D3E90023FCF71C
:103CF000FDFE00287FF4CEAC33A3D3E90023404679
:103D00004946FCF711FF00283FF47BAFC2E4049B57
:103D100033B3119BB3F1D46F22D82DA3D3E9002381
:103D200040464946FCF7ECFEA0B149464046FCF748
:103D300043FF012838BF0120FCF7ECFB0F9B8046B6
:103D4000894613BB01F1004314901593DDE9142358
:103D5000CDE90C230D9B119A03F1D6639B1A0D93A9
:103D6000DDE90C019DED0A0BCDE90C0101F074FEBB
:103D7000DDE90C0153EC102BFCF746FCDDE90A23CE
:103D8000FCF78CFA82468B468FE7CDE91489DDE794
:103D900011A3D3E90023FCF7A9FEB4E700230E9397
:103DA000199A1D9B1360FFF765BA652B3FF45DAB55
:103DB000452B3FF45AAB0122FFF792BBAFF30080D3
:103DC0009535A094FFFFDF3F35E5AF350000E03FBC
:103DD0000000C0FFFFFFDF419535A094FFFFCF3FFC
:103DE0000000F03F0000F07F0000E07FFFFF9F7CBD
:103DF0000000E03F0000F0BFFFFFEF7F014BFFF747
:103E0000F3B900BF78000020012B2DE9F04701D065
:103E1000242B06D9FEF7F8FA162303600020BDE82C
:103E2000F0873A4F8E4676461EF8014BE55D15F059
:103E30000805F8D12D2C34D19EF800404FF0010830
:103E400006F1020E002B5CD0102B0CD1302C0AD1C5
:103E50009EF8004004F0DF04582C4DD19EF801403C
:103E600010230EF1020E08F1004C0CF1FF3C00266D
:103E7000BCFBF3F9354603FB19CAA4F13007092F3F
:103E800018D83C46A34224DD002E1FDBA9451DD3D4
:103E900001D1A2451ADB05FB034501261EF8014BA3
:103EA000EBE72B2C08BF9EF80040A84608BF06F1A0
:103EB000020EC7E7A4F14107192F01D8373CE1E70B
:103EC000A4F16107192F04D8573CDBE74FF0FF3608
:103ED000E4E7002E05DA22230360654642B928464E
:103EE0009DE7B8F1000F00D06D42002AF7D00EB167
:103EF0000EF1FF311160F2E73024002BB3D108231B
:103F0000B1E7302CA4D00A23ADE700BFC16D000893
:103F1000FFF77ABF00B59BB0009104916FF00041AC
:103F20000591029105490391694601F0F9FF009B53
:103F300000221A701BB05DF804FB00BF0802FFFFEF
:103F400013460A46014602480068FFF7E3BF00BF78
:103F5000100000202DE9F74F03690C69A3420746C2
:103F6000C0F28180013C01F1140800F1140505EB59
:103F70008403019358F8243055F8242001339A42E1
:103F80004FEA840B08EB8409B2FBF3F631D34FF010
:103F9000000E4046AC46F24650F8042B93B206FBA6
:103FA00003E34FEA134E9BB2AAEB0303120CDCF8B7
:103FB00000A006FB02E213FA8AF34FEA124E1FFA40
:103FC00082FADCF80020CAEB124202EB23429BB2D9
:103FD00043EA024381454CF8043B4FEA224ADBD2D4
:103FE00055F80B302BB9019B043B9D421A462ED34A
:103FF0003C61384601F08CFC002824DB0136284661
:104000004FF0000C58F8042BD0F800E093B2ACEB62
:104010000303120C13FA8EF3C2EB1E4202EB23428F
:104020009BB243EA0243C14540F8043B4FEA224CAD
:10403000E8D255F8242005EB840322B9043B9D42C5
:104040001A460AD33C61304603B0BDE8F08F1268CF
:10405000043B002ACCD1013CC7E71268043B002A8C
:10406000F0D1013CEBE70020EEE70000000000008B
:104070002DE9F04F2DED028B57EC106B95B0456A92
:10408000DDF880800591CDE90267044609920F931F
:1040900075B9102001F04CF90246606220B9B24BAC
:1040A000EA21B24802F074F8C0E901550560C56024
:1040B000636A196851B15A684A60012393408B6062
:1040C000204601F09DF9636A00221A603B1EB9BFC9
:1040D00023F0004303930023C8F80030DDF80C9070
:1040E000A34BBCBF0122C8F8002033EA09031BD14F
:1040F0000F9A42F20F731360C9F31303334300F0B6
:104100007A85219B63B99B4B24E09B4B009308333A
:10411000219A1360009815B0BDEC028BBDE8F08FBA
:10412000944B00930333F3E79DED027B002251ECA7
:10413000170B00238DED0A7BFCF7CEFC804658B1AF
:104140000F9A01231360219B002B00F051858B48AF
:104150001860431E0093DDE79DED0A0B12AA13A918
:10416000204601F0F5FCC9F30A558346002D7CD0AA
:104170000B9BCDF84080C3F31303DDE90A6743F0DE
:104180007F5747F44017A5F2FF357D4B002230469C
:104190003946FCF781F86EA3D3E90023FCF734FA23
:1041A0006DA3D3E90023FCF779F8064628460F46AD
:1041B000FCF7C0F96AA3D3E90023FCF725FA02460D
:1041C0000B4630463946FCF769F806460F46FCF7C1
:1041D000CBFC00228246002330463946FCF786FCA1
:1041E00048B15046FCF7A6F932463B46FCF774FC52
:1041F00008B90AF1FF3ABAF1160F54D8614B03EB34
:10420000CA03D3E90023DDE90A01FCF76FFC0028AB
:104210004BD00AF1FF3A00230E93129B5D1B6B1EDD
:10422000049343BF0023C5F1010804934FF0000835
:10423000BAF1000F3BDB049BCDF834A05344049348
:1042400000230693059B092B69D8052BC4BF043BAB
:104250000593059BA3F10203CCBF00250125032B89
:1042600069D8DFE803F02C4E4C5ADDE912531D44A7
:1042700005F23243202BC1BFC3F1400305F21240C7
:1042800009FA03F326FA00F0DABFC3F1200306FAB5
:1042900003F01843FCF73EF901230646A1F1F87735
:1042A000013D109371E70123B6E70E90B5E7CAF11F
:1042B000000306930023A8EB0A080D93C2E700232E
:1042C0000893099B002B39DC4FF00109CDF80490CD
:1042D0004B46CDF82490606A00224260042202F12D
:1042E00014069E4241682FD9204601F049F80090FB
:1042F00000284BD1244B02464FF4D571D1E601235F
:10430000DEE700230893099B0AEB030909F1010387
:10431000012B0193B8BF0123DDE70123F2E701255B
:104320000023059308954FF0FF390022CDF8049043
:1043300012230992CFE701230893F4E7DDF82490D4
:10434000CDF804904B46C6E7013141605200C6E704
:1043500061436F63A787D23FB3C8608B288AC63F8B
:10436000FB799F501344D33FCE6E0008E56E0008E2
:104370000000F07FCA6E0008C16E0008456D00089D
:104380000000F83F60700008446F0008636A009AFC
:104390001A60019B0E2B00F2AD80002D00F0AA8068
:1043A000BAF1000F36DDC34A0AF00F0302EBC30374
:1043B00093ED007B1AF4807F4FEA2A17B0EE478A0C
:1043C000F0EE678A16D0BC4BDDE90A01D3E9082379
:1043D000FCF744FACDE9020107F00F070325B64EBA
:1043E00057B9DDE9020153EC182BFCF737FACDE998
:1043F000020129E00225F2E7F90708D551EC180B74
:10440000D6E90023FCF700F941EC180B01357F10C9
:104410000836E5E700F0A680CAF10006A54BA64FD6
:1044200006F00F0203EBC203D3E90023DDE90A0122
:10443000FCF7EAF8CDE90201361100230225002E2F
:1044400040F08580002BD2D10E9B002B00F08C8099
:10445000DDE90267994B002230463946FCF746FBFE
:10446000002800F08180019B002B7DD0B9F1000F66
:104470003CDD0AF1FF3307930022914B3046394669
:10448000FCF7C2F8CDE902010135CDF83090DDE945
:1044900002672846FCF74EF832463B46FCF7B4F874
:1044A000884B0022FBF7FAFEA1F15073CDE902011F
:1044B00003930C9B002B5CD1834B00223046394682
:1044C000FBF7EAFEDDE9022306460F46FCF72CFB6C
:1044D000002840F09682DDE90221304601F10043D8
:1044E0003946FCF703FB002840F08882DDE90A2307
:1044F000CDE90223139B002BC0F25881BAF10E0FB5
:1045000000F354816B4B03EBCA03D3E90089099B89
:10451000002B80F2E380019B002B00F3DF8040F052
:104520006D82694B002240464946FCF76DF8DDE993
:104530000223FCF7EFFA019E3746002840F0438241
:10454000009D312305F8013B0AF1010A3FE2F20721
:1045500005D5D7E90023FCF757F80135012376107C
:1045600008376CE702256FE7019BCDF81CA00C9380
:104570008DE700990C980C9A4E4B9DED027B0144FF
:1045800002910899B0EE478AF0EE678A03EBC20306
:1045900053E90223002945D04C490020FCF75EF97D
:1045A00053EC182BFBF778FE009D41EC180B3946B5
:1045B0003046FCF7D9FA0C90FBF7BCFF02460B46DD
:1045C00030463946FBF768FE0C9B303305F8013B5B
:1045D00053EC182B06460F46FCF788FA002865D1E5
:1045E00032463B4635490020FBF756FE53EC182B6C
:1045F000FCF77CFA002840F0B980029B9D423FF412
:1046000075AF2F4B51EC180B0022FBF7FDFF2C4B25
:1046100041EC180B002230463946FBF7F5FF064601
:104620000F46C4E751EC170BFBF7EEFF029B009D12
:104630000C9341EC180B39463046FCF795FA119073
:10464000FBF778FF02460B4630463946FBF724FE5F
:10465000119B303305F8013B029B9D4206460F46F5
:104660004FF0000234D1194B51EC180BFBF716FE3A
:1046700002460B4630463946FCF756FA002875D1FB
:1046800053EC182B11490020FBF706FE02460B469F
:1046900030463946FCF72AFA00283FF427AF0C9D34
:1046A0006B1E0C9315F8013C302BF8D0DDF81CA0E4
:1046B0004AE000BF60700008387000080000F03F5A
:1046C0000000244000001C40000014400000E03FB7
:1046D000AF4BFBF799FF06460F46ACE7DDE90267F3
:1046E000009D42464B4630463946FCF7B7F8FCF78A
:1046F0003BFA0290FBF71EFF42464B46FBF784FF56
:1047000002460B4630463946FBF7C6FD029E019F26
:10471000303605F8016B009EAE1BB74202460B46D1
:1047200037D1FBF7BBFD42464B4606460F46FCF72A
:10473000FBF9C8B942464B4630463946FCF7CCF93E
:1047400010B1029BD9070FD42046594600F058FEFD
:1047500000232B700F9B0AF101001860219B002B96
:104760003FF4D8AC1D60D5E4CDF81CA02B461D4607
:1047700013F8012D392A08D1009A9A42F7D1079AE5
:1047800000990132079230220A701A7801321A70A9
:104790008CE77F4B0022FBF737FF00220023064601
:1047A0000F46FCF799F900289BD0CDE7089A002A1C
:1047B00000F0C480059A012A00F3A880109A002A0C
:1047C00000F0A08003F23343069E4546049A01217F
:1047D0001A4420469844049200F018FF0746002D22
:1047E0000BDD049B002B08DDAB42049AA8BF2B46CF
:1047F000A8EB0308ED1AD31A0493069BFBB1089BA0
:10480000002B00F09F80002E11DD394632462046F5
:1048100000F0B8FF5A4601460746204600F00CFF5C
:1048200059460790204600F0EBFD079B9B46069BF0
:104830009A1B04D05946204600F0A4FF834601216C
:10484000204600F0E3FE0D9B002B06467CDD1A4659
:104850000146204600F096FF059B012B064676DDBB
:1048600000230693336906EB8303186900F07EFE8C
:10487000C0F12000049B184410F01F0000F0868057
:10488000C0F12003042B7FDDC0F11C00049B034416
:10489000804405440493B8F1000F05DD59464246B3
:1048A000204600F0C9FF8346049B002B05DD3146FE
:1048B0001A46204600F0C0FF06460E9B002B69D02A
:1048C0003146584601F024F8002863DA002359469F
:1048D0000A22204600F0B6FD089B0AF1FF3A834603
:1048E000002B00F08F81394600230A22204600F079
:1048F000A9FDB9F1000F074600F38E80059B022B3E
:1049000050DC89E0129BC3F136035DE7019B5E1E1C
:10491000069BB342BFBF069B0696F21A0D9BB6BF1D
:104920009B189E1B0D93019BB8BF0026002BB5BFA3
:10493000A8EB0305019B0023454647E7069E089F19
:1049400045464CE7069A75E7059B012B18DC029B50
:10495000B3B9039BC3F31303A3B9039B23F0004331
:104960001B0D1B052BB1049B0133049308F10108B7
:10497000012306930D9B002B7FF474AF012079E790
:104980000023F6E7029BF4E785D018461C307DE74C
:1049900000002440019B002B38DC059B022B35DDF9
:1049A000DDF80490B9F1000F0DD131464B460522D8
:1049B000204600F047FD01460646584600F0A8FF95
:1049C00000283FF7BDAD099B009D6FEA030A4FF039
:1049D00000083146204600F013FD002F3FF4B4AE2E
:1049E000B8F1000F05D0B84503D04146204600F08D
:1049F00007FD3946204600F003FDA5E600263746B0
:104A0000E1E70C9EDDF81CA0374699E5089BDDF830
:104A10000490002B00F0FD80002D05DD39462A466C
:104A2000204600F009FF0746069B002B5CD0796802
:104A3000204600F0A5FC054628B9804B024640F20E
:104A4000EA21FFF72EBB3A690232920007F10C010E
:104A50000C3000F087FC01222946204600F0ECFED5
:104A6000009B01330193009B4B440793029B03F08F
:104A70000103B84606930746019B3146013B584661
:104A80000293FFF767FA03463033049041465846D5
:104A9000089300F03DFF3A4681463146204600F03B
:104AA00053FFC268089B054602BB0146584600F00A
:104AB0002FFF089B024629462046CDE9083200F028
:104AC0009FFC059B099A019D43EA0201069B0B434B
:104AD000089B0DD1392B29D0B9F1000F01DD049BC2
:104AE0003133029A137074E73846B9E70122E2E7DE
:104AF000B9F1000F06DB059941EA0909069959EA5F
:104B0000010120D1002AECDD594601222046019303
:104B100000F092FE3146834600F0FAFE0028019B29
:104B200002DCDED1DA07DCD5392BD8D1029A392361
:104B300013702B461D46013B15F8012C392A50D025
:104B400001321A7045E7002A03DD392BEED001331C
:104B5000C7E7019A079902F8013C8A422AD05946D0
:104B600000230A22204600F06DFCB84583464FF032
:104B700000034FF00A024146204607D100F062FCD4
:104B800080460746019B0133019375E700F05AFC0C
:104B90003946804600230A22204600F053FC07468F
:104BA000F0E7B9F1000F009ACCBF4D46012515443E
:104BB0004FF00008594601222046019300F03CFEC8
:104BC0003146834600F0A4FE0028B2DC02D1019BEE
:104BD000DB07AED42B461D4613F8012D302AFAD040
:104BE000F7E6009A9A42A5D10AF1010A312379E742
:104BF000134BFFF7AFBA219B002B7FF486AA114B12
:104C0000FFF7A8BAB9F1000F03DC059B022B3FF7B1
:104C1000C9AE009D31465846FFF79CF900F13003BC
:104C200005F8013B009AAA1A9145BADD59460023BE
:104C30000A22204600F006FC8346EBE7446F00089A
:104C4000446D0008C16E00080369B3EB611F2DE9D4
:104C5000F0434FEA611200F1140445DD11F01F0129
:104C600004EB830604EB82050CD100F11007294602
:104C7000B14234D39B1A9B00EA1E964238BF0023F0
:104C8000234415E054F82270C1F12008CF4005F10B
:104C9000040EA1467645F44615D89B1A9A00043AAC
:104CA0000135AE4238BF0022A318A75007B1043324
:104CB0001A1BA3424FEAA20208BF0023026108BFE9
:104CC0004361BDE8F083DCF800C00CFA08FC4CEA54
:104CD000070749F8047B5EF8047BCF40DAE751F818
:104CE00004CB47F804CFC3E72346E1E7A0F1300344
:104CF000092B02D82038C0B27047A0F16103052B00
:104D000001D84738F7E7A0F14103052B01D8273830
:104D1000F1E70020704700002DE9F04F2DED028BE8
:104D200089B008EE100A0493BC4B1B680193184627
:104D30008B469046FBF754FA019BDBF800200344B6
:104D4000824613F8013C0593931CC2F1FF2202F541
:104D50007F02FE32D1181F4613F8010B0091302854
:104D6000F8D0FFF7C3FF044600283AD10199524614
:104D7000384601F0EDF90546002868D117F80A0019
:104D800007EB0A06FFF7B2FF002862D03346187817
:104D900030281F4603F10103F9D0FFF7A7FF0123D5
:104DA000B0FA80F46409354600933A46164601325B
:104DB0003078FFF79BFF0028F8D101995246304622
:104DC00001F0C6F980B94DB906EB0A052A46164628
:104DD00001323078FFF78AFF0028F8D1AD1BAD0013
:104DE00004E000242546E0E7002DF7D1337803F0F6
:104DF000DF03502B3BD173782B2B2CD02D2B2ED0B7
:104E0000711C4FF000090878FFF770FF431EDBB2FA
:104E1000182B2CD8A0F1100211F8010FFFF766FF34
:104E2000431EDBB2182B1DD9B9F1000F00D052423E
:104E30001544CBF80010E4B1009B002B14BF0027F1
:104E40000627384609B0BDEC028BBDE8F08F3E4620
:104E500025460124CAE74FF00009B11CD3E74FF003
:104E60000109FAE70A2303FB0202103AD4E73146AC
:104E7000DFE7F31B013B2146072B0BDC18EE100A82
:104E800000F07EFA044640B9654B0246DE216548D3
:104E900001F07EF901315B10EEE700F114094FF0EB
:104EA000000BCAF10103CDF80890CDF800B00693CD
:104EB000B74240D30298009B40F8043BA0EB0900A6
:104EC000801046012061184600F050FB301AD8F8D7
:104ED0000060B04263DD871B3946204600F0EAFEE1
:104EE0008246A8B17B1E591103F01F0259F8211008
:104EF0004FF0010A0AFA02F20A4209D0534505DDD1
:104F0000B91E204600F0D6FE002845D14FF0020A17
:104F100039462046FFF798FE3D44D8F80830AB42AA
:104F20004CDA18EE100A214600F06AFA149A0023AF
:104F30001360A32785E7731E059A039316F8013CB7
:104F4000934219D0BBF1200F07D1029B009A43F87E
:104F5000042B0293002300939B4616F8010CFFF7E5
:104F6000C5FE009B00F00F0000FA0BF00343009316
:104F70000BF1040B039B0DE0039B069A1344BB4209
:104F8000E0D3184601990793524601F0E1F8079BD8
:104F90000028D7D11E468BE74FF0030AB8E70ADA9C
:104FA000371A214618EE100A3A4600F045FCED1B70
:104FB000044600F114094FF0000AAEE7D8F80400E7
:104FC000A84272DD451BAE4236DCD8F80C30022B0D
:104FD0002AD0032B2CD0012B15D1AE4213D1012E98
:104FE0000BD1049AD8F80430136001232361C9F867
:104FF0000030149B62271C6023E7711E204600F0DE
:1050000059FE0028EDD118EE100A214600F0F8F9FB
:10501000149A00231360502713E700BFC06F0008E5
:10502000446F0008556F0008159B002BEBD1D8E7A3
:10503000159B002BD5D1E6E76F1EBAF1000F31D1D9
:1050400027B13946204600F035FE82467B1101210A
:1050500059F8233007F01F0701FA07F71F422946C6
:10506000204618BF4AF0020A761BFFF7EDFDD8F87C
:1050700004500227BAF1000F48D0D8F80C30022BA8
:1050800015D0032B17D0012B09D11AF0020F06D02F
:10509000D9F800004AEA000A1AF0010F0ED147F0D1
:1050A000100733E04FF0010AD0E70127E2E7159B34
:1050B000C3F101031593159B002BF0D0D4F810B069
:1050C00004F114034FEA8B0A03EB8B014FF0000C41
:1050D000184653F8042BB2F1FF3F1CD00132026096
:1050E000022F04F114033FD1D8F80020013AB24254
:1050F0000AD17111012253F8213006F01F0602FA7D
:1051000006F61E4218BF174647F02007149B1C6086
:10511000049B1D6095E6994243F804CCD8D8A36857
:105120009B4519DB616818EE100A013100F028F97F
:10513000814618B91A4B02468421A8E62269023238
:1051400004F10C0192000C3000F00CF9214618EE2D
:10515000100A00F055F94C4623695A1C04EB8303EE
:10516000226101225A61BBE722695A450BDD012108
:105170002046FFF769FDD8F808300135AB42FFF64D
:10518000D0AE0127C0E716F01F06FAD09A44C6F148
:1051900020065AF8040C00F0E9F9B042E7DBF0E72A
:1051A000446F0008C2F10802920070B5C2F12006F7
:1051B0004368046803FA06F52C43D340046040F8C2
:1051C000043F8842F4D370BD30B50368013311F851
:1051D000014B14B90360012030BD13F8012BA2F17B
:1051E0004105192D98BF2032A242F0D00020F3E7EC
:1051F0002DE9F04F0B6801685E1102EB860613F093
:105200001F0387B018BF04360025371F824690461B
:10521000019346F8045CB9463C460295AB464A7891
:105220004B1C039342B3104605910492FFF75EFDB9
:1052300000284FD1049A0599202A18D8029B9B4533
:1052400013DD4C4506D2072D04DC2A46494620468C
:10525000FFF7A8FF444550D90023A4F1040944F8FE
:10526000043CCDF808B04C461D460399D7E7292ADF
:1052700056D10231CAF80010BBF1000F50D04C4596
:1052800006D2072D04DC2A4649462046FFF78AFF4E
:10529000444534D9A8F10402234653F8041B42F8CC
:1052A000041F9F42F9D23B1B23F003030433013454
:1052B000033EB44288BF04234344002243F8042B36
:1052C0009F42FBD23B681BB9474527D101233B6076
:1052D000052026E00135082D0BF1010B06DD4445C4
:1052E000C3D9002344F8043C0125043C226800F0A3
:1052F0000F0040EA02122260B7E70825B5E7019BDC
:10530000002BDFD04FF0FF32C3F1200322FA03F36A
:1053100056F8042C1A4046F8042CD3E7043FD1E792
:10532000042007B0BDE8F08F0048704768010020F6
:10533000024B0146186800F03DBD00BF1000002080
:1053400082B001B901A942B14BB113780B60127858
:10535000101E18BF012002B070471046FBE76FF027
:105360000100F8E70A44914200F1FF3300D1704791
:1053700010B511F8014B03F8014F9142F9D110BD5E
:1053800070B5466A04460D4676B91020FFF7D0FF87
:105390000246606220B9184B1848662100F0F8FEFA
:1053A000C0E901660660C660666AF36883B1636A35
:1053B000DB6853F82500B8B9012101FA05F6721D22
:1053C0009200204600F097FC60B1C0E901560EE063
:1053D00021220421204600F08EFC636AF060DB6825
:1053E000002BE4D1002070BD026843F82520002383
:1053F000C0E90333F7E700BFCE6E0008D46F0008A2
:1054000070B5466A05460C4676B91020FFF790FF46
:105410000246686220B9094B09488A2100F0B8FEAB
:10542000C0E901660660C6603CB16B6A6268DB6811
:1054300053F82210216043F8224070BDCE6E000860
:10544000D46F00082DE9F0410E69074698460C46D6
:1054500001F1140000230568A9B202FB01814FEAA3
:10546000114C2D0C02FB05C589B2013301EB05413E
:105470009E4240F8041B4FEA1548ECDCB8F1000FDF
:1054800022D0A368B34219DC616838460131FFF7C6
:1054900077FF054628B902460D4B0E48B52100F0AE
:1054A00077FE2269023204F10C0192000C30FFF702
:1054B00059FF21463846FFF7A3FF2C4604EB86032D
:1054C0000136C3F8148026612046BDE8F08100BF94
:1054D000446F0008D46F00082DE9F8430C461546C8
:1054E0001F4609220833064693FBF2F300210122EE
:1054F0009A4209DB3046FFF743FF40B90246194B99
:105500001948CE2100F044FE52000131F0E7089B1B
:105510004361092D4FF00103036116DD04F1090910
:10552000C8462C4418F8013B0146303B0A2230465D
:10553000FFF788FFA045F5D1A5F108044C442D1BC9
:105540006319BB4204DBBDE8F8830A340925F6E79A
:1055500014F8013B0146303B0A223046FFF772FF48
:10556000EEE700BF446F0008D46F0008030C1B0473
:10557000D3B90004102310F07F4F04BF000208339A
:1055800010F0704F04BF0001043310F0404F04BF0F
:1055900080000233002805DB10F0804F03F1010387
:1055A00008BF2023184670470023E4E7036813F080
:1055B000070201460BD0DA0724D4980749BF5B08DD
:1055C0009B0801200B605CBF0B600220704798B203
:1055D000B0B91B0C102013F0FF0F04BF1B0A0830DA
:1055E0001A0704BF1B0904309A0704BF9B08023046
:1055F000DA0703D45B0800F1010005D00B607047A7
:105600001046E8E7002070472020704710B50C4690
:105610000121FFF7B5FE024628B9054B05484FF4B6
:10562000A07100F0B5FD01234461036110BD00BF0E
:10563000446F0008D46F00082DE9F04F14460A6942
:1056400023699A42B8BF0B460D46BCBF25461C468F
:10565000D5F810A0D4F81090AB6869680AEB090778
:10566000BB4285B0B8BF0131FFF78AFE30B90246B0
:10567000424B434840F25D1100F08AFD00F11406F0
:1056800006EB87083346002243451ED305F1140C70
:1056900004F114030CEB8A0C03EB89020292ACEBCD
:1056A0000502153A22F00302043205F115018C457A
:1056B00038BF04220192029A03939A4208D8002F1D
:1056C00055DC076105B0BDE8F08F43F8042BDBE73C
:1056D000B3F800A0BAF1000F20D005F1140EB146C6
:1056E00000225EF8044BD9F800B0A1B21FFA8BFB80
:1056F0000AFB01B11144D9F80020240C120C0AFB5A
:10570000042404EB114489B241EA0441F44549F808
:10571000041B4FEA1442E4D801997250039AB2F87C
:1057200002900433B9F1000F1FD0346805F1140161
:10573000B6464FF0000A0A88BEF802B009FB02B272
:105740009244A4B244EA0A444EF8044B51F8044B84
:10575000BEF80020240C09FB042404EB1A448C45F9
:105760004FEA144AE7D8019AB4500436A3E758F830
:10577000043D002BA5D1013FA1E700BF446F000805
:10578000D46F00082DE9F843154612F003020646CF
:105790000F4607D0254C013A002354F82220FFF78A
:1057A00051FE0746AD103DD0746A7CB91020FFF75A
:1057B000BFFD0246706228B91D4B1E484FF4D771D9
:1057C00000F0E6FCC0E901440460C460D6F824801F
:1057D000D8F808404CB940F271213046FFF716FF67
:1057E0000023C8F80800044603604FF00009EB07E7
:1057F0000AD5394622463046FFF71EFF3946804615
:105800003046FFF7FDFD47466D100BD0206838B9D4
:10581000224621463046FFF70FFF2060C0F8009077
:105820000446E4E73846BDE8F88300BF2871000865
:10583000CE6E0008D46F00082DE9F0470C46496889
:10584000236903EB6218A368074691464FEA621A80
:1058500008F10106B3420BDB3846FFF791FD054620
:1058600048B90246284B294840F2D91100F090FC73
:1058700001315B00EEE7002300F1140100F110029A
:105880001846534533DB20692AEAEA7A04F1140307
:1058900019F01F0901EB8A0103EB800C2BD0C9F131
:1058A000200E8A460022186800FA09F002434AF8DE
:1058B000042B53F8042B9C4522FA0EF2F3D8ACEBE0
:1058C0000403153B23F00303043304F1150084455E
:1058D00038BF0423CA500AB108F10206013E384617
:1058E0002E612146FFF78CFD2846BDE8F08742F87F
:1058F000040F0133C5E7043953F8042B41F8042F92
:105900009C45F9D8EAE700BF446F0008D46F00084F
:1059100030B502690C69121B0ED100F11403143169
:1059200003EB840001EB840150F8045D51F8044D51
:10593000A54203D005D30122104630BD8342F3D3E4
:10594000FAE74FF0FF32F7E72DE9F84F0C4606462D
:10595000114620461746FFF7DBFF051E10D12946EA
:105960003046FFF70DFD30B9394B024640F2322187
:10597000384800F00DFC0123C0E90435BDE8F88F7C
:10598000A4BF3B46274630467968A6BF1C46002583
:105990000125FFF7F5FC20B92D4B02464FF410719D
:1059A000E6E73E69C560256907F1140104F11409B1
:1059B00000F1140E07F1100201EB860C09EB8505CE
:1059C000F246002759F8043B52F804BF1FFA83F847
:1059D00017FA8BF71B0CA7EB0808C3EB1B4303EB71
:1059E00028431FFA88F81F144D4548EA03434AF834
:1059F000043BE7D82B1B153B23F00303043315347A
:105A0000A54238BF0423194473449E460D4665459C
:105A10000ED30CF10302521A22F0030203398C4513
:105A200038BF00221A4452F8043D7BB10661A5E755
:105A300055F8048B17FA88F4221402EB1842A4B22A
:105A400044EA02444EF8044B1714E0E7013EEAE74B
:105A5000446F0008D46F000882B08DED000B019BED
:105A600012491940A1F15071002905DD00220B46B1
:105A700043EC102B02B070474942B1F1A07F4FEACE
:105A800021504FF000024FF0000304DA4FF40021E0
:105A900041FA00F3ECE7A0F114011E29DABF4FF040
:105AA000004020FA01F101210A46E1E70000F07F01
:105AB000F8B5056900F1140707EB85052E1F55F8A9
:105AC000044C2046FFF752FDC0F120030A28DFF8FE
:105AD0007CC00B6014DCC0F10B0E24FA0EF1B7424F
