:020000040800F2
:1000000000800120C12900087D27000883270008FF
:10001000892700088F2700089527000800000000A6
:100020000000000000000000000000009B27000806
:10003000A927000800000000B7270008C52700080E
:10004000112A0008112A0008112A0008112A0008A4
:10005000112A0008112A0008112A0008112A000894
:10006000112A0008112A0008112A0008112A000884
:10007000112A0008112A0008112A0008112A000874
:10008000112A0008112A0008112A000800000000A7
:10009000000000000000000000000000D127000860
:1000A000112A0008112A0008112A0008112A000844
:1000B000E9270008112A0008112A0008112A00085F
:1000C000112A0008112A0008112A0008112A000824
:1000D000112A0008112A0008112A00080000000057
:1000E000112A0008112A0008112A00080000000047
:1000F000000000000000000000000000112A0008BD
:1001000000000000112A0008FD270008112A00083D
:1001100000000000000000000000000000000000DF
:10012000112A0008112A0008112A0008112A0008C3
:10013000112A00080000000000000000000000007C
:10014000000000000000000000000000112A00086C
:10015000112A0008112A0008112A0008112A000893
:10016000112A0008112A0008000000000000000009
:10017000000000000000000000000000000000007F
:1001800000000000112A000800000000000000002C
:04019000112A000828
:1001A00010B5054C237833B9044B13B10448AFF3B1
:1001B00000800123237010BDE80100200000000032
:1001C000789A000808B5034B1BB103490348AFF305
:1001D000008008BD00000000EC010020789A0008B3
:1001E000034613F8012B002AFBD1181A0138704777
:1001F00001F0FF01102A2BDB10F0070F08D010F8D8
:10020000013B013A8B422DD010F0070F42B3F6D1DB
:10021000F0B441EA012141EA014122F007047FF0F4
:1002200000070023F0E80256083C85EA010586EA4B
:10023000010685FA47F5A3FA87F586FA47F6A5FA87
:1002400087F68EB9EED1F0BC01F0FF0102F0070293
:1002500032B110F8013B013A83EA010313B1F8D13E
:100260000020704701387047002D06BF354603381F
:10027000073815F0010F07D1013015F4807F02BF58
:10028000013015F4C03F0130F0BC0138704700BFA9
:1002900081F0004102E000BF83F0004330B54FEA37
:1002A00041044FEA430594EA050F08BF90EA020FA4
:1002B0001FBF54EA000C55EA020C7FEA645C7FEA37
:1002C000655C00F0E2804FEA5454D4EB5555B8BF5A
:1002D0006D420CDD2C4480EA020281EA030382EACB
:1002E000000083EA010180EA020281EA0303362D5D
:1002F00088BF30BD11F0004F4FEA01314FF4801C30
:100300004CEA113102D0404261EB410113F0004F41
:100310004FEA03334CEA133302D0524263EB4303F8
:1003200094EA050F00F0A780A4F10104D5F1200E96
:100330000DDB02FA0EFC22FA05F2801841F10001F1
:1003400003FA0EF2801843FA05F359410EE0A5F1C5
:1003500020050EF1200E012A03FA0EFC28BF4CF0F6
:10036000020C43FA05F3C01851EBE37101F00045AC
:1003700007D54FF0000EDCF1000C7EEB00006EEBB9
:100380000101B1F5801F1BD3B1F5001F0CD3490843
:100390005FEA30004FEA3C0C04F101044FEA44529A
:1003A00012F5800F80F09A80BCF1004F08BF5FEA21
:1003B000500C50F1000041EB045141EA050130BD01
:1003C0005FEA4C0C404141EB0101013C28BFB1F513
:1003D000801FE9D291F0000F04BF01460020B1FA5E
:1003E00081F308BF2033A3F10B03B3F120020CDA31
:1003F0000C3208DD02F1140CC2F10C0201FA0CF00F
:1004000021FA02F10CE002F11402D8BFC2F1200C73
:1004100001FA02F120FA0CFCDCBF41EA0C01904029
:10042000E41AA2BF01EB0451294330BD6FEA040472
:100430001F3C1CDA0C340EDC04F11404C4F120025D
:1004400020FA04F001FA02F340EA030021FA04F36F
:1004500045EA030130BDC4F10C04C4F1200220FAC6
:1004600002F001FA04F340EA0300294630BD21FA04
:1004700004F0294630BD94F0000F83F4801306BFCA
:1004800081F480110134013D4EE77FEA645C18BFBE
:100490007FEA655C29D094EA050F08BF90EA020F55
:1004A00005D054EA000C04BF1946104630BD91EA4D
:1004B000030F1EBF0021002030BD5FEA545C05D150
:1004C0004000494128BF41F0004130BD14F580048F
:1004D0003CBF01F5801130BD01F0004545F0FE4103
:1004E00041F470014FF0000030BD7FEA645C1ABF38
:1004F000194610467FEA655C1CBF0B46024650EA6F
:10050000013406BF52EA033591EA030F41F400219A
:1005100030BD00BF90F0000F04BF0021704730B520
:100520004FF4806404F132044FF000054FF00001F5
:1005300050E700BF90F0000F04BF0021704730B5B6
:100540004FF4806404F1320410F0004548BF40428B
:100550004FF000013EE700BF42004FEAE2014FEAE0
:1005600031014FEA02701FBF12F07F4393F07F4FBB
:1005700081F06051704732F07F4208BF704793F0BE
:100580007F4F04BF41F40021704730B54FF46074D1
:1005900001F0004521F000411CE700BF50EA0102D4
:1005A00008BF704730B54FF000050AE050EA01027D
:1005B00008BF704730B511F0004502D5404261EBED
:1005C00041014FF4806404F132045FEA915C3FF42E
:1005D000D8AE4FF003025FEADC0C18BF03325FEACB
:1005E000DC0C18BF033202EBDC02C2F1200300FA7C
:1005F00003FC20FA02F001FA03FE40EA0E0021FAA1
:1006000002F11444BDE600BF70B54FF0FF0C4CF48E
:10061000E06C1CEA11541DBF1CEA135594EA0C0F40
:1006200095EA0C0F00F0DEF82C4481EA030621EA7B
:100630004C5123EA4C5350EA013518BF52EA0335B6
:1006400041F4801143F4801338D0A0FB02CE4FF068
:100650000005E1FB02E506F00042E0FB03E54FF098
:100660000006E1FB03569CF0000F18BF4EF0010E90
:10067000A4F1FF04B6F5007F64F5407404D25FEA8C
:100680004E0E6D4146EB060642EAC62141EA55513F
:100690004FEAC52040EA5E504FEACE2EB4F1FD0C81
:1006A00088BFBCF5E06F1ED8BEF1004F08BF5FEAFF
:1006B000500E50F1000041EB045170BD06F00046B1
:1006C00046EA010140EA020081EA0301B4EB5C045E
:1006D000C2BFD4EB0C0541EA045170BD41F4801156
:1006E0004FF0000E013C00F3AB8014F1360FDEBF7B
:1006F000002001F0004170BDC4F10004203C35DA57
:100700000C341BDC04F11404C4F1200500FA05F3D9
:1007100020FA04F001FA05F240EA020001F000427A
:1007200021F0004110EBD37021FA04F642EB0601F0
:100730005EEA430E08BF20EAD37070BDC4F10C041A
:10074000C4F1200500FA04F320FA05F001FA04F2DE
:1007500040EA020001F0004110EBD37041F10001CA
:100760005EEA430E08BF20EAD37070BDC4F12005D5
:1007700000FA05F24EEA020E20FA04F301FA05F23D
:1007800043EA020321FA04F001F0004121FA04F2E5
:1007900020EA020000EBD3705EEA430E08BF20EAB5
:1007A000D37070BD94F0000F0FD101F000464000EF
:1007B00041EB010111F4801F08BF013CF7D041EA71
:1007C000060195F0000F18BF704703F00046520075
:1007D00043EB030313F4801F08BF013DF7D043EA46
:1007E0000603704794EA0C0F0CEA135518BF95EAFC
:1007F0000C0F0CD050EA410618BF52EA4306D1D183
:1008000081EA030101F000414FF0000070BD50EAA1
:10081000410606BF1046194652EA430619D094EA2B
:100820000C0F02D150EA013613D195EA0C0F05D115
:1008300052EA03361CBF104619460AD181EA030169
:1008400001F0004141F0FE4141F470014FF0000021
:1008500070BD41F0FE4141F4780170BD70B54FF0BC
:10086000FF0C4CF4E06C1CEA11541DBF1CEA13553C
:1008700094EA0C0F95EA0C0F00F0A7F8A4EB05041E
:1008800081EA030E52EA03354FEA013100F0888015
:100890004FEA03334FF0805545EA131343EA1263DE
:1008A0004FEA022245EA111545EA10654FEA002693
:1008B0000EF000419D4208BF964244F1FD0404F54C
:1008C000407402D25B084FEA3202B61A65EB0305A8
:1008D0005B084FEA32024FF480104FF4002CB6EB65
:1008E000020E75EB030E22BFB61A754640EA0C00E5
:1008F0005B084FEA3202B6EB020E75EB030E22BF25
:10090000B61A754640EA5C005B084FEA3202B6EB65
:10091000020E75EB030E22BFB61A754640EA9C0024
:100920005B084FEA3202B6EB020E75EB030E22BFF4
:10093000B61A754640EADC0055EA060E18D04FEAB2
:10094000051545EA16754FEA06164FEAC30343EA52
:1009500052734FEAC2025FEA1C1CC0D111F4801F1F
:100960000BD141EA00014FF000004FF0004CB6E718
:1009700011F4801F04BF01430020B4F1FD0C88BFB7
:10098000BCF5E06F3FF6AFAEB5EB030C04BFB6EBC2
:10099000020C5FEA500C50F1000041EB045170BDB5
:1009A0000EF0004E4EEA113114EB5C04C2BFD4EBE2
:1009B0000C0541EA045170BD41F480114FF0000E66
:1009C000013C90E645EA060E8DE60CEA135594EAE2
:1009D0000C0F08BF95EA0C0F3FF43BAF94EA0C0FE5
:1009E0000AD150EA01347FF434AF95EA0C0F7FF45A
:1009F00025AF104619462CE795EA0C0F06D152EAAE
:100A000003353FF4FDAE1046194622E750EA410691
:100A100018BF52EA43067FF4C5AE50EA41047FF4A2
:100A20000DAF52EA43057FF4EBAE12E74FF0FF3C07
:100A300006E000BF4FF0010C02E000BF4FF0010CD8
:100A40004DF804CD4FEA410C7FEA6C5C4FEA430C51
:100A500018BF7FEA6C5C1BD001B050EA410C0CBFA0
:100A600052EA430C91EA030F02BF90EA020F002002
:100A7000704710F1000F91EA030F58BF994208BF69
:100A800090422CBFD8176FEAE37040F00100704726
:100A90004FEA410C7FEA6C5C02D150EA013C07D17D
:100AA0004FEA430C7FEA6C5CD6D152EA033CD3D0C8
:100AB0005DF8040B704700BF8446104662468C46C2
:100AC0001946634600E000BF01B5FFF7B7FF0028F5
:100AD00048BF10F1000F01BD4DF808EDFFF7F4FF1E
:100AE0000CBF012000205DF808FB00BF4DF808EDA9
:100AF000FFF7EAFF34BF012000205DF808FB00BFCC
:100B00004DF808EDFFF7E0FF94BF012000205DF8ED
:100B100008FB00BF4DF808EDFFF7CEFF94BF0120A2
:100B200000205DF808FB00BF4DF808EDFFF7C4FF9B
:100B300034BF012000205DF808FB00BF4FEA410CE4
:100B40007FEA6C5C02D150EA013C0AD14FEA430CC7
:100B50007FEA6C5C02D152EA033C02D14FF0000004
:100B600070474FF0010070474FEA410212F5001242
:100B700015D211D56FF47873B3EB625212D94FEAE4
:100B8000C12343F0004343EA505311F0004F23FACE
:100B900002F018BF404270474FF00000704750EA23
:100BA000013005D111F0004008BF6FF000407047E0
:100BB0004FF00000704700BF4A0011D212F500123A
:100BC00011D20DD56FF47873B3EB62520ED44FEAA5
:100BD000C12343F0004343EA505323FA02F0704725
:100BE0004FF00000704750EA013002D14FF0FF3063
:100BF00070474FF0000070474FEA4102B2F1E04306
:100C000024BFB3F5001CDCF1FE5C0DD901F0004CF3
:100C10004FEAC0024CEA5070B2F1004F40EB830043
:100C200008BF20F00100704711F0804F21D113F16F
:100C30003872BCBF01F00040704741F480114FEAA8
:100C40005252C2F11802C2F1200C10FA0CF320FA31
:100C500002F018BF40F001004FEAC1234FEAD3234E
:100C600003FA0CFC40EA0C0023FA02F34FEA4303B8
:100C7000CCE77FEA625307D150EA01331EBF4FF041
:100C8000FE4040F44000704701F0004040F0FE405C
:100C900040F40000704700BF53B94AB9002908BFAB
:100CA00000281CBF4FF0FF314FF0FF3000F0A4B917
:100CB000ADF1080C6DE904CE00F03CF8DDF804E07D
:100CC000DDE9022304B0704738B500220023044652
:100CD0000D46FFF70BFF28B920462946BDE83840EE
:100CE00000F00AB8204605F1004100F005F8404246
:100CF00061EB410138BD00BFD0B50C4B0022064668
:100D00000F46FFF781FCFFF757FF0446FFF702FC91
:100D1000074B0022FFF778FC02460B463046394667
:100D2000FFF7BAFAFFF748FF2146D0BD0000F03DBB
:100D30000000F0412DE9F047089D04468C46002B49
:100D400040F083808A42174647D9B2FA82F242B114
:100D5000C2F1200024FA00F09140974040EA010CD3
:100D600094404FEA1748230CBCFBF8F61FFA87FEA5
:100D700008FB16C143EA014306FB0EF1994209D96B
:100D8000FB1806F1FF3080F01981994240F216817C
:100D9000023E3B445B1AA4B2B3FBF8F008FB1033ED
:100DA00044EA034400FB0EFEA64509D93C1900F1B4
:100DB000FF3380F00581A64540F2028102383C44B1
:100DC00040EA0640A4EB0E0400261DB1D4400023E7
:100DD000C5E900433146BDE8F08702B9FFDEB2FA4B
:100DE00082F2002A50D1CB1B4FEA174E1FFA87F828
:100DF0000126B3FBFEFC210C0EFB1C3341EA034130
:100E000008FB0CF38B4207D979180CF1FF3002D2A2
:100E10008B4200F2E9808446C91AA3B2B1FBFEF00E
:100E20000EFB101143EA014408FB00F8A04507D966
:100E30003C1900F1FF3302D2A04500F2D9801846D8
:100E4000A4EB080440EA0C40BFE78B4209D9002D0F
:100E500000F0B1800026C5E9000130463146BDE80A
:100E6000F087B3FA83F6002E4AD18B4202D3824236
:100E700000F2B880841A61EB030101208C46002D3A
:100E8000A8D0C5E9004CA5E7C2F1200320FA03F67B
:100E9000974001FA02F04FEA174ED9403043030C55
:100EA000B1FBFEF61FFA87F80EFB161143EA014369
:100EB00006FB08F1994204FA02F409D9FB1806F17D
:100EC000FF3C80F08D80994240F28A80023E3B4494
:100ED0005B1A81B2B3FBFEF00EFB103341EA034113
:100EE00000FB08F38B4207D9791800F1FF3C73D25D
:100EF0008B4271D902383944CB1A40EA064678E76A
:100F0000C6F1200C03FA06F422FA0CF31C4320FA73
:100F10000CF701FA06F34FEA144E21FA0CF11F43C5
:100F20003B0CB1FBFEF91FFA84F80EFB191143EAE2
:100F3000014109FB08FA8A4502FA06F200FA06F3B3
:100F400008D9611809F1FF3048D28A4546D9A9F17C
:100F500002092144A1EB0A01BFB2B1FBFEF00EFB76
:100F6000101147EA014700FB08F8B84507D9E7190F
:100F700000F1FF312ED2B8452CD90238274440EA7F
:100F80000940A7EB0807A0FB02894F45C646494622
:100F90001AD317D05DB1B3EB0E0267EB010707FA66
:100FA0000CFCF2404CEA0202F740C5E9002700269B
:100FB0003146BDE8F0872E4628460BE70646E9E6AF
:100FC0001846FDE64345E5D2B8EB020E69EB040195
:100FD0000138DFE70846D2E760468DE78146B9E78A
:100FE000664675E730464AE7ACF1020C394413E730
:100FF00002383C4424E700BF704700BF80B400AF14
:10100000144BDB68134A23F08073D360114BDB6809
:10101000104A43F08073D3600F4B1B680E4A23F0D5
:10102000010313600C4B1B680B4A43F00103136070
:10103000094B00225A6000BF00BF00BF064B5B682F
:10104000002B01D0002300E001231846BD465DF8C7
:10105000047B7047F0ED00E0001000E080B584B044
:1010600000AF78600D4B5B68FB6003F00BF8034644
:101070000B4AA2FB03239B0C7A6802FB03F37B6001
:1010800000BF064B5A68FB68D21A7B689A42F8D3B5
:1010900000BF00BF1037BD4680BD00BF001000E09C
:1010A00083DE1B4380B500AF0B4B1B680B4A1188D6
:1010B0000122184602F0A0FB1420FFF7CFFF064BD9
:1010C0001B68064A11880022184602F095FB3C2056
:1010D000FFF7C4FF00BF80BD040200200A02002009
:1010E00080B582B000AF0346FB71064B1B68064A11
:1010F0001188FA79184602F07FFB00BF0837BD4619
:1011000080BD00BF040200200802002080B584B02A
:1011100000AF0346FB71FB7903F00F03FB73FB7910
:101120001B09BB735F4B1B78002B5AD05E4B1868B2
:101130005E4B1988FB7B03F00103DBB21A4602F019
:101140005BFB594B18685A4B1988FB7B03F0020371
:10115000DBB21A4602F050FB534B1868554B198806
:10116000FB7B03F00403DBB21A4602F045FB4E4B57
:101170001868514B1988FB7B03F00803DBB21A4651
:1011800002F03AFB4D4B18684D4B1988BB7B03F0BE
:101190000103DBB21A4602F02FFB484B1868494B9B
:1011A0001988BB7B03F00203DBB21A4602F024FB72
:1011B000424B1868444B1988BB7B03F00403DBB235
:1011C0001A4602F019FB3D4B1868404B1988BB7B4F
:1011D00003F00803DBB21A4602F00EFBFFF762FFD2
:1011E0005BE0364B1868364B1988BB7B03F0010374
:1011F000DBB21A4602F000FB304B1868314B1988FD
:10120000BB7B03F00203DBB21A4602F0F5FA2B4B6C
:1012100018682D4B1988BB7B03F00403DBB21A4618
:1012200002F0EAFA254B1868284B1988BB7B03F0BB
:101230000803DBB21A4602F0DFFAFFF733FF1F4B59
:1012400018681F4B1988FB7B03F00103DBB21A46B9
:1012500002F0D2FA194B18681A4B1988FB7B03F07D
:101260000203DBB21A4602F0C7FA144B1868164B99
:101270001988FB7B03F00403DBB21A4602F0BCFAC8
:101280000E4B1868114B1988FB7B03F00803DBB287
:101290001A4602F0B1FAFFF705FF00BF1037BD464E
:1012A00080BD00BF000000200C02002010020020C2
:1012B0001202002014020020160200201802002052
:1012C0001C0200201E02002020020020220200201A
:1012D00080B582B000AF0346FB710020FFF700FF2E
:1012E000FB791846FFF712FF00BF0837BD4680BDE7
:1012F00080B582B000AF0346FB710120FFF7F0FE1E
:10130000FB791846FFF702FF00BF0837BD4680BDD6
:1013100080B582B000AF0346FB71FB7903F00F0389
:10132000FB710020FFF7DCFE184B1868184B19887A
:10133000FB7903F00103DBB21A4602F05DFA134BAE
:101340001868144B1988FB7903F00203DBB21A46C4
:1013500002F052FA0D4B18680F4B1988FB7903F015
:101360000403DBB21A4602F047FA084B18680B4B2D
:101370001988FB7903F00803DBB21A4602F03CFA45
:10138000FFF790FE00BF0837BD4680BD1802002061
:101390001C0200201E020020200200202202002049
:1013A00080B584B000AFF8607B600B467B8113464C
:1013B0003B81FFF723FE244AFB681360234A7B89A5
:1013C0001380234A3B891380224A7B681360224A98
:1013D0003B8B1380214ABB8B1380214A3B8C1380AB
:1013E000204ABB8C1380204B00221A701F4B2822EE
:1013F0001A70142001F080FB0320FFF789FF0520FD
:1014000001F07AFB0320FFF783FF012001F074FB5A
:101410000320FFF77DFF012001F06EFB0220FFF7A4
:1014200077FF012001F068FB2820FFF751FF0F2014
:10143000FFF74EFF0120FFF74BFF032001F05CFB9D
:1014400000BF1037BD4680BD040200200802002006
:101450000A020020180200201C0200201E020020A8
:1014600020020020220200200000002002000020B4
:1014700080B584B000AF03460A46FB711346BB71CA
:10148000BB7903F00F03FB73FB79002B08D1FB7BC7
:1014900063F07F03FB73FB7B1846FFF719FF07E040
:1014A000FB7B63F03F03FB73FB7B1846FFF710FFEA
:1014B00000BF1037BD4680BD80B500AF00210020C1
:1014C000FFF7D6FF00BF80BD80B500AF002101202F
:1014D000FFF7CEFF00BF80BD80B582B000AF0346EE
:1014E000FB71FB79002B0CD00E4B1B7843F00303F0
:1014F000DAB20C4B1A700B4B1B781846FFF7E8FE5C
:101500000BE0084B1B7823F00303DAB2054B1A708B
:10151000044B1B781846FFF7DBFE00BF0837BD46BB
:1015200080BD00BF010000200FB490B589B000AFAE
:1015300007F134037B6007F108037A68396B1846BA
:1015400005F0BEFB0023FB770BE0FB7F07F12002D9
:10155000134413F8183C1846FFF7CAFEFB7F01330B
:10156000FB77FC7F07F108031846FEF739FE0346B8
:101570009C4202D2FB7F0F2BE7D900BF2437BD4628
:10158000BDE8904004B07047B0B5BCB004AF01F006
:1015900041FA00F0FBF800F04FFB00F057F900F0C3
:1015A000D3FA00F0F7F900F0A5F900F07FFA6C48E3
:1015B00002F0C4FD00216A4802F0D4FE694802F03E
:1015C000BDFD0421674802F0CDFE674802F0B6FD7C
:1015D000664802F0B3FD8023039340230293202347
:1015E000019310230093624B012202216148FFF70F
:1015F000D7FE0020FFF770FF0123C7F8DC3007F1AA
:101600004003C7F8D8303B46C7F8D4304FF000024B
:10161000594BC7E932234FF00002584BC7E930233A
:101620004DA3D3E90023C7E92E2340F2E733C7F8DF
:10163000B430534BC7F8B030D7F8B020D7F8B41057
:1016400097ED2E2B97ED321B97ED300BD7F8D80086
:1016500000F075FED7F8B020D7F8B41097ED2E2B18
:1016600097ED321B97ED300BD7F8D40000F067FEF2
:10167000D7F8DC30012B6CD1012000F055FC87ED50
:101680002A0B022000F050FC87ED280B97ED281B59
:1016900097ED2A0B00F0B6FC87ED260B97ED281B83
:1016A00097ED2A0B00F034FD87ED240BD7F8D4100A
:1016B000D7E92623C1E90823D7F8D810D7E924238E
:1016C000C1E908232F4B93ED007BB0EE471AF0EEF3
:1016D000671A97ED260BD7F8D40000F074FE53EC90
:1016E000102B10461946FFF73FFA0346C7F88C3017
:1016F000254B93ED007BB0EE471AF0EE671A97ED9D
:10170000240BD7F8D80000F05EFE53EC102B1046E7
:101710001946FFF729FA0346C7F88830D7F88C0036
:10172000FEF708FF04460D46D7F88800FEF702FFD3
:1017300002460B4643EC112B45EC104B00F06EFDBE
:10174000D7F8DC0000F0C8FD00F02AFC87ED200B84
:101750008EE700BF8CE700BF9A9999999999B93F94
:1017600068030020880200202003002030020020AF
:1017700000000240000402400000F03F000024404E
:1017800019FCFFFF800200201803002080B594B0F0
:1017900000AF07F1200330220021184603F01EFDA0
:1017A00007F10C0300221A605A609A60DA601A612D
:1017B0000023BB60234B1B6C224A43F0805313640D
:1017C000204B1B6C03F08053BB60BB6800237B6025
:1017D0001D4B1B6823F440431B4A43F40043136032
:1017E000194B1B6803F440437B607B6802233B6218
:1017F0000123FB6210233B630023BB6307F120033B
:10180000184602F02BF80346002B01D000F092FDA1
:101810000F23FB6000233B6100237B610023BB613E
:101820000023FB6107F10C030021184602F08EFA39
:101830000346002B01D000F07DFD00BF5037BD46B0
:1018400080BD00BF003802400070004080B584B009
:1018500000AF3B4600221A605A609A60DA60224B61
:10186000224A1A60204B4FF440325A601E4B4FF010
:1018700000729A601C4B00221A611B4B00221A76E0
:10188000194B002283F82020174B0022DA62164BF6
:10189000174A9A62144B0022DA60134B0122DA6174
:1018A000114B002283F830200F4B01225A610E4861
:1018B00001F046F90346002B01D000F03BFD0A235E
:1018C0003B6001237B600023BB603B461946064812
:1018D00001F0C6FA0346002B01D000F02BFD00BF3B
:1018E0001037BD4680BD00BFD0020020002001405F
:1018F0000100000F80B586B000AF07F10803002299
:101900001A605A609A60DA603B4600221A605A6098
:101910001E4B1F4A1A601D4B9F225A601B4B002210
:101920009A601A4B4FF6FF72DA60184B00221A6168
:10193000164B00225A61154B00229A61134802F09F
:10194000ADFB0346002B01D000F0F4FC4FF48053B4
:10195000BB6007F1080319460C4802F0D1FF0346AB
:10196000002B01D000F0E6FC00233B6000237B60ED
:101970003B461946054803F085FB0346002B01D082
:1019800000F0D8FC00BF1837BD4680BD2003002002
:101990000000014080B58EB000AF07F1280300229F
:1019A0001A605A609A60DA6007F1200300221A6018
:1019B0005A603B1D00221A605A609A60DA601A6110
:1019C0005A619A61384B4FF080421A60364B9F2221
:1019D0005A60354B00229A60334B4FF47A72DA60CA
:1019E000314B00221A61304B00229A612E4802F0DE
:1019F00055FB0346002B01D000F09CFC4FF48053B4
:101A0000BB6207F128031946274802F079FF034615
:101A1000002B01D000F08EFC234802F04AFC034664
:101A2000002B01D000F086FC1F4802F0E9FB0346C2
:101A3000002B01D000F07EFC00233B6200237B6280
:101A400007F120031946184803F01CFB0346002B3E
:101A500001D000F06FFC60237B604FF4FA73BB6031
:101A60000023FB6000237B613B1D002219460E48CA
:101A700002F088FE0346002B01D000F05BFC00233F
:101A80007B603B1D04221946074802F023FE0346F3
:101A9000002B01D000F04EFC034800F011FE00BF07
:101AA0003837BD4680BD00BF6803002080B586B0D2
:101AB00000AF07F1080300221A605A609A60DA60EA
:101AC0003B4600221A605A601D4B1E4A1A601C4B8E
:101AD0009F225A601A4B00229A60194B4FF6FF72F0
:101AE000DA60174B00221A61154B00229A611448E4
:101AF00002F0D4FA0346002B01D000F01BFC4FF497
:101B00008053BB6007F1080319460D4802F0F8FE48
:101B10000346002B01D000F00DFC00233B600023A6
:101B20007B603B461946064803F0ACFA0346002B9F
:101B300001D000F0FFFB00BF1837BD4680BD00BFDD
:101B4000300200200008004080B58EB000AF07F1E1
:101B5000280300221A605A609A60DA6007F12003B5
:101B600000221A605A603B1D00221A605A609A6077
:101B7000DA601A615A619A612D4B2E4A1A602C4B19
:101B80009F225A602A4B00229A60294B4FF47A72A6
:101B9000DA60274B00221A61254B00229A61244803
:101BA00002F07CFA0346002B01D000F0C3FB4FF497
:101BB0008053BB6207F1280319461D4802F0A0FEBE
:101BC0000346002B01D000F0B5FB194802F071FB71
:101BD0000346002B01D000F0ADFB00233B62002345
:101BE0007B6207F120031946114803F04BFA0346C4
:101BF000002B01D000F09EFB60237B604FF4FA7352
:101C0000BB600023FB6000237B613B1D042219465F
:101C1000074802F0B7FD0346002B01D000F08AFB15
:101C2000034800F04DFD00BF3837BD4680BD00BF02
:101C300088020020000C004080B588B000AF07F19A
:101C40000C0300221A605A609A60DA601A6100235D
:101C5000BB60414B1B6B404A43F0040313633E4B94
:101C60001B6B03F00403BB60BB6800237B603A4B33
:101C70001B6B394A43F001031363374B1B6B03F0B3
:101C800001037B607B6800233B60334B1B6B324A54
:101C900043F002031363304B1B6B03F002033B6002
:101CA0003B680022F0212D4801F0A6FD00224CF2F5
:101CB0007F012B4801F0A0FDF023FB6001233B6175
:101CC00000237B610023BB6107F10C031946234805
:101CD00001F0F6FB4CF27F03FB6001233B61002324
:101CE0007B610023BB6107F10C0319461C4801F01E
:101CF000E7FB4FF4A073FB601A4B3B6100237B6151
:101D000007F10C031946184801F0DAFB4FF4207371
:101D1000FB6000233B6100237B6107F10C03194644
:101D2000114801F0CDFB4FF44063FB6000233B61A1
:101D300000237B6107F10C031946084801F0C0FB42
:101D400000220021172001F084FB172001F09DFBE9
:101D500000BF2037BD4680BD003802400000024071
:101D600000040240000011100008024000000000C2
:101D70002DE9B04384B000AF0346FB80FB88402BC5
:101D80002CD1334B1B685B6ABB60B868FEF7D2FB93
:101D90002DA3D3E90023FEF737FC02460B464FF094
:101DA00000002C49FEF75AFD02460B462A49C1E9BC
:101DB00000238021294801F007FD0346002B08D0AD
:101DC000254BD3E90023904683F00049224BC3E919
:101DD00000891F4B1B6800225A6230E0FB88B3F574
:101DE000807F2CD11E4B1B685B6AFB60F868FEF796
:101DF000A1FB15A3D3E90023FEF706FC02460B4620
:101E00004FF000001349FEF729FD02460B46154925
:101E1000C1E900234FF40071104801F0D5FC0346DE
:101E2000002B08D00F4BD3E90023144683F0004564
:101E30000C4BC3E900450A4B1B6800225A6200BFE5
:101E40001037BD46BDE8B0836A1D554D10752F3F54
:101E50002003002000004E408002002000080240C5
:101E6000300200201803002080B584B000AF3B464C
:101E700000221A605A609A60DA600A233B600123EC
:101E80007B600023BB603B461946064800F0E8FF34
:101E90000346002B01D000F04DFA00BF1037BD46BD
:101EA00080BD00BFD002002080B584B000AF3B46AB
:101EB00000221A605A609A60DA600B233B600123AB
:101EC0007B600023BB603B461946064800F0C8FF14
:101ED0000346002B01D000F02DFA00BF1037BD469D
:101EE00080BD00BFD002002080B584B000AF3B466B
:101EF00000221A605A609A60DA600C233B6001236A
:101F00007B600023BB603B461946064800F0A8FFF3
:101F10000346002B01D000F00DFA00BF1037BD467C
:101F200080BD00BFD002002080B586B000AF7860D1
:101F30007B68012B02D1FFF7B7FF04E07B68022B1F
:101F400001D1FFF7D1FF144800F03EFE4FF0FF3102
:101F5000114800F0EDFE104800F075FF0346FB75D8
:101F6000FB7D1846FEF7D6FA09A3D3E90023FEF756
:101F70004BFB02460B46C7E90223D7E9022343EC99
:101F8000172BB0EE470AF0EE670A1837BD4680BD42
:101F9000811AB44DE7808A3FD00200200000000083
:101FA00080B584B000AFFFF75FFF154800F00CFE6E
:101FB0004FF0FF31124800F0BBFE114800F043FF24
:101FC0000346FB73FB7B1846FEF7A4FA0AA3D3E98A
:101FD0000023FEF719FB02460B46C7E90023D7E9A9
:101FE000002343EC172BB0EE470AF0EE670A1037D8
:101FF000BD4680BDAFF30080181818181818A83F08
:10200000D002002080B58CB000AF87ED020B87EDC9
:10201000001B4FF000023B4BD7E90201FEF73CF9F1
:1020200002460B46104619464FF00002364BFEF7AB
:10203000EBFA02460B46104619464FF00002314BB0
:10204000FEF70CFC02460B46C7E908234FF00002DE
:102050002C4BD7E90001FEF71FF902460B4610464C
:1020600019464FF00002284BFEF7CEFA02460B4607
:10207000104619464FF00002224BFEF7EFFB0246D6
:102080000B46C7E906234FF00002204BD7E90801B1
:10209000FEF7BAFA02460B46C7E904234FF00002E6
:1020A0004FF00003D7E90601FEF734FD0346002B8D
:1020B0000BD04FF00002144BD7E90401FEF7A4FA4D
:1020C00002460B46C7E90A2310E04FF000020E4B10
:1020D000D7E90601FEF7E2F802460B46D7E904010C
:1020E000FEF792FA02460B46C7E90A23D7E90A230C
:1020F00043EC172BB0EE470AF0EE670A3037BD46C7
:1021000080BD00BF0000F83F0000244000001040E8
:1021100080B58CB000AF87ED020B87ED001B4FF050
:1021200000023B4BD7E90201FEF7B6F802460B4628
:10213000104619464FF00002364BFEF765FA02468C
:102140000B46104619464FF00002314BFEF786FB56
:1021500002460B46C7E908234FF000022C4BD7E993
:102160000001FEF799F802460B46104619464FF05B
:102170000002284BFEF748FA02460B461046194665
:102180004FF00002224BFEF769FB02460B46C7E9FF
:1021900006234FF00002204BD7E90801FEF734FA7E
:1021A00002460B46C7E904234FF000024FF000033C
:1021B000D7E90601FEF7AEFC0346002B11D0D7E9A4
:1021C00006234FF000001349FEF766F802460B465F
:1021D000D7E90401FEF718FA02460B46C7E90A23BD
:1021E0000AE04FF000020B4BD7E90401FEF70CFAAE
:1021F00002460B46C7E90A23D7E90A2343EC172B0B
:10220000B0EE470AF0EE670A3037BD4680BD00BF2A
:102210000000F83F000024400000104080B586B068
:1022200000AF87ED020B87ED001B4FF000024FF06F
:102230000003D7E90201FEF763FC0346002B06D03A
:1022400001224FF40041214801F0D6FA05E00022B6
:102250004FF400411D4801F0CFFA4FF000024FF05B
:102260000003D7E90001FEF74BFC0346002B06D024
:1022700001224FF48041154801F0BEFA05E000222A
:102280004FF48041114801F0B7FAD7E90201FEF797
:102290006BFC03467B61D7E90001FEF765FC034652
:1022A0003B617B6983EAE372A2EBE372084B1B6834
:1022B0005A633B6983EAE372A2EBE372054B1B6846
:1022C0009A6300BF1837BD4680BD00BF00040240BE
:1022D000680300208802002080B584B002AF7860D7
:1022E000FFF7EAF87B68012B03D10D48FFF71CF9D3
:1022F00002E00C48FFF718F9FFF7E6F80A4BD3E9BC
:1023000000010A4BD3E90023CDE9002302460B4626
:102310000748FFF709F900BF0837BD4680BD00BF79
:10232000909A0008A49A0008800200201803002058
:10233000B49A000880B400AF72B600BFFEE780B563
:102340008AB000AF786287ED060B87ED041B87ED3E
:10235000022B39627A60796AD7E90623C1E9022340
:10236000796AD7E90423C1E90023796AD7E902230E
:10237000C1E90423796A4FF000024FF00003C1E97C
:102380000623796A4FF000024FF00003C1E90823E9
:10239000796A4FF000024FF00003C1E90A23386A5E
:1023A000FEF7C8F802460B46796AC1E90C23786843
:1023B000FEF7C0F802460B46796AC1E90E2300BF5A
:1023C0002837BD4680BD2DE9B0438CB000AF7861A1
:1023D00087ED020B87ED001B7B69D3E90623C7E974
:1023E0000823D7E90023D7E90201FDF755FF02468C
:1023F0000B467969C1E906237B69D3E90A017B6948
:10240000D3E90623FDF74AFF02460B46C7E9062338
:102410007B69D3E902017B69D3E90623FEF7F4F86F
:1024200002460B4614461D467B69D3E90001D7E9F5
:102430000623FEF7E9F802460B4620462946FDF73B
:102440002DFF02460B46904699467B69D3E9044529
:102450007B69D3E90601D7E90823FDF71DFF024692
:102460000B4620462946FEF7CFF802460B4640466B
:102470004946FDF713FF02460B46C7E90A237B696D
:10248000D3E90C23D7E90A01FEF730FB0346002B02
:102490000FD07B69D3E90E23D7E90A01FEF744FB8D
:1024A0000346002B05D07969D7E90623C1E90A2341
:1024B0001EE07B69D3E90C23D7E90A01FEF72AFB6A
:1024C0000346002B05D07B69D3E90C23C7E90A2317
:1024D0000EE07B69D3E90E23D7E90A01FEF710FB72
:1024E0000346002B04D07B69D3E90E23C7E90A23F6
:1024F000D7E90A2343EC172BB0EE470AF0EE670A40
:102500003037BD46BDE8B08380B483B000AF002350
:102510007B60104B5B6C0F4A43F4804353640D4B5C
:102520005B6C03F480437B607B6800233B60094B5A
:102530001B6C084A43F080531364064B1B6C03F07A
:1025400080533B603B6800BF0C37BD465DF8047BA1
:10255000704700BF0038024080B58AB000AF786095
:1025600007F1140300221A605A609A60DA601A6157
:102570007B681B68174A934227D100233B61164BA7
:102580005B6C154A43F480735364134B5B6C03F428
:1025900080733B613B690023FB600F4B1B6B0E4A52
:1025A00043F0040313630C4B1B6B03F00403FB6049
:1025B000FB6807237B610323BB610023FB6107F1F9
:1025C00014031946054800F07BFF00BF2837BD46BD
:1025D00080BD00BF002001400038024000080240DA
:1025E00080B586B000AF78607B681B68304A934244
:1025F0000ED100237B612F4B5B6C2E4A43F001030D
:1026000053642C4B5B6C03F001037B617B694AE0F4
:102610007B681B68B3F1804F16D100233B61254BCB
:102620001B6C244A43F001031364224B1B6C03F020
:1026300001033B613B69002200211C2000F009FFDF
:102640001C2000F022FF2EE07B681B681A4A934290
:102650000ED10023FB60174B1B6C164A43F004039A
:102660001364144B1B6C03F00403FB60FB681AE05B
:102670007B681B68114A934215D10023BB600D4B48
:102680001B6C0C4A43F0080313640A4B1B6C03F0E9
:102690000803BB60BB6800220021322000F0D9FE95
:1026A000322000F0F2FE00BF1837BD4680BD00BFEB
:1026B000000001400038024000080040000C0040CB
:1026C00080B58AB000AF786007F1140300221A6069
:1026D0005A609A60DA601A617B681B68B3F1804FB8
:1026E0001ED100233B61224B1B6B214A43F00103A7
:1026F00013631F4B1B6B03F001033B613B69012319
:102700007B610223BB610023FB6100233B62012349
:102710007B6207F114031946164800F0D1FE22E04F
:102720007B681B68144A93421DD10023FB60104B49
:102730001B6B0F4A43F0010313630D4B1B6B03F03C
:102740000103FB60FB6802237B610223BB61002362
:10275000FB6100233B6202237B6207F114031946ED
:10276000044800F0ADFE00BF2837BD4680BD00BF65
:102770000038024000000240000C004080B400AF6E
:10278000FEE780B400AFFEE780B400AFFEE780B4A0
:1027900000AFFEE780B400AFFEE780B400AF00BF3B
:1027A000BD465DF8047B704780B400AF00BFBD46F6
:1027B0005DF8047B704780B400AF00BFBD465DF894
:1027C000047B704780B500AF00F076F900BF80BD94
:1027D00080B500AF402001F029F84FF4807001F07F
:1027E00025F800BF80BD000080B500AF024801F0B1
:1027F00069FE00BF80BD00BF6803002080B500AF48
:10280000024801F05FFE00BF80BD00BF88020020CB
:1028100080B400AF01231846BD465DF8047B7047C5
:1028200080B582B000AF7860396002F0ADFC03463D
:1028300016221A604FF0FF3318460837BD4680BD98
:1028400080B582B000AF78604FF0FF317868FFF755
:10285000E7FFFEE780B586B000AFF860B9607A6048
:1028600000237B610AE0AFF300800146BB685A1C7D
:10287000BA60CAB21A707B6901337B617A697B687E
:102880009A42F0DB7B6818461837BD4680BD80B59C
:1028900086B000AFF860B9607A6000237B6109E020
:1028A000BB685A1CBA601B781846AFF300807B697E
:1028B00001337B617A697B689A42F1DB7B68184659
:1028C0001837BD4680BD80B483B000AF78604FF04C
:1028D000FF3318460C37BD465DF8047B704780B463
:1028E00083B000AF786039603B684FF400525A60A3
:1028F000002318460C37BD465DF8047B704780B452
:1029000083B000AF7860012318460C37BD465DF8F0
:10291000047B704780B485B000AFF860B9607A601E
:10292000002318461437BD465DF8047B704700004D
:1029300080B586B000AF7860144A154BD31A7B611E
:102940007B693B61134B1B68002B02D1114B124A70
:102950001A60104B1A687B6813443A699A4207D28E
:1029600002F012FC03460C221A604FF0FF3309E01C
:10297000084B1B68FB60074B1A687B681344054AC9
:102980001360FB6818461837BD4680BD00800120E3
:102990000004000024020020C803002080B400AF1F
:1029A000064BD3F88830054A43F47003C2F88830E8
:1029B00000BFBD465DF8047B704700BF00ED00E03E
:1029C000DFF834D00D480E490E4A002302E0D458F7
:1029D000C4500433C4188C42F9D30B4A0B4C002367
:1029E00001E013600432A242FBD3FFF7D7FF02F0ED
:1029F000D1FBFEF7C9FD70470080012000000020D8
:102A0000E4010020A49F0008E8010020C403002086
:102A1000FEE7000080B500AF0E4B1B680D4A43F483
:102A2000007313600B4B1B680A4A43F48063136006
:102A3000084B1B68074A43F480731360032000F0BF
:102A4000FDFC002000F008F8FFF75EFD00231846AB
:102A500080BD00BF003C024080B582B000AF78600E
:102A6000124B1A68124B1B7819464FF47A73B3FB5A
:102A7000F1F3B2FBF3F3184600F015FD0346002B0B
:102A800001D001230EE07B680F2B0AD80022796861
:102A90004FF0FF3000F0DDFC064A7B681360002336
:102AA00000E0012318460837BD4680BD0400002021
:102AB0000C0000200800002080B400AF064B1B78FB
:102AC0001A46064B1B681344044A136000BFBD46F8
:102AD0005DF8047B704700BF0C000020B0030020AD
:102AE00080B400AF034B1B681846BD465DF8047BFD
:102AF000704700BFB003002080B584B000AF78609D
:102B0000FFF7EEFFB8607B68FB60FB68B3F1FF3F47
:102B100005D00A4B1B781A46FB681344FB6000BFC4
:102B2000FFF7DEFF0246BB68D31AFA689A42F7D86D
:102B300000BF00BF1037BD4680BD00BF0C000020A5
:102B400080B584B000AF78600023FB737B68002BF6
:102B500001D1012333E07B681B6C002B09D178681D
:102B6000FFF7FAFC7B6800225A647B68002283F836
:102B70003C207B681B6C03F01003002B18D17B6892
:102B80001B6C23F4885323F0020343F002027B689A
:102B90001A64786800F086FA7B6800225A647B68C1
:102BA0001B6C23F0030343F001027B681A6401E00D
:102BB0000123FB737B68002283F83C20FB7B1846D3
:102BC0001037BD4680BD000080B485B000AF78608E
:102BD0000023BB607B6893F83C30012B01D10223BA
:102BE00097E07B68012283F83C207B681B689B6828
:102BF00003F00103012B18D07B681B689A687B687F
:102C00001B6842F001029A60454B1B68454AA2FBD3
:102C100003239A0C13465B001344BB6002E0BB68BD
:102C2000013BBB60BB68002BF9D17B681B689B68CC
:102C300003F00103012B5FD17B681B6C23F4E0637D
:102C400023F0010343F480727B681A647B681B687D
:102C50005B6803F48063002B07D07B681B6C23F454
:102C6000405343F480527B681A647B681B6C03F406
:102C70008053B3F5805F06D17B685B6C23F006025E
:102C80007B685A6402E07B6800225A647B680022F9
:102C900083F83C20244BFB607B681B686FF02202AA
:102CA0001A60FB685B6803F01F03002B0FD17B6881
:102CB0001B689B6803F04053002B29D17B681B687D
:102CC0009A687B681B6842F080429A6020E07B68CB
:102CD0001B68164A93421BD17B681B689B6803F0F4
:102CE0004053002B14D17B681B689A687B681B6873
:102CF00042F080429A600BE07B681B6C43F010024C
:102D00007B681A647B685B6C43F001027B685A64E1
:102D1000002318461437BD465DF8047B704700BF9A
:102D20000400002083DE1B430023014000200140FB
:102D300080B584B000AF786039600023FB607B68A9
:102D40001B689B6803F48063B3F5806F13D17B68C5
:102D50001B689B6803F48073B3F5807F0BD17B689D
:102D60001B6C43F020027B681A647B68002283F8A6
:102D70003C20012363E0FFF7B3FEF86021E03B68ED
:102D8000B3F1FF3F1DD03B68002B07D0FFF7A8FE33
:102D90000246FB68D31A3A689A4212D27B681B68D3
:102DA0001B6803F00203022B0BD07B681B6C43F003
:102DB00004027B681A647B68002283F83C200323AA
:102DC0003DE07B681B681B6803F00203022BD6D131
:102DD0007B681B686FF012021A607B681B6C43F4FF
:102DE00000727B681A647B681B689B6803F0405321
:102DF000002B23D17B681B7E002B1FD17B681B68B7
:102E0000DB6A03F47003002B06D07B681B689B68A9
:102E100003F48063002B11D17B681B6C23F4807258
:102E20007B681A647B681B6C03F48053002B05D10C
:102E30007B681B6C43F001027B681A640023184610
:102E40001037BD4680BD80B483B000AF78607B682A
:102E50001B68DB6C18460C37BD465DF8047B704779
:102E600080B485B000AF786039600023BB607B68B8
:102E700093F83C30012B01D1022305E17B6801224C
:102E800083F83C203B681B68092B25D97B681B68AD
:102E9000D9683B681B689BB21A4613465B00134413
:102EA0001E3B072202FA03F3DA437B681B680A40E1
:102EB000DA607B681B68D9683B689A683B681B6866
:102EC0009BB2184603465B0003441E3B9A407B6856
:102ED0001B680A43DA6022E07B681B6819693B685B
:102EE0001B689BB21A4613465B001344072202FA82
:102EF00003F3DA437B681B680A401A617B681B682E
:102F000019693B689A683B681B689BB21846034680
:102F10005B0003449A407B681B680A431A613B6864
:102F20005B68062B24D87B681B68596B3B685A6822
:102F300013469B001344053B1F2202FA03F3DA43B6
:102F40007B681B680A405A637B681B68596B3B6847
:102F50001B689BB218463B685A6813469B00134493
:102F6000053B00FA03F27B681B680A435A634CE096
:102F70003B685B680C2B24D87B681B68196B3B682B
:102F80005A6813469B001344233B1F2202FA03F3A3
:102F9000DA437B681B680A401A637B681B68196BFD
:102FA0003B681B689BB218463B685A6813469B00F7
:102FB0001344233B00FA03F27B681B680A431A633D
:102FC00023E07B681B68D96A3B685A6813469B00FC
:102FD0001344413B1F2202FA03F3DA437B681B6868
:102FE0000A40DA627B681B68D96A3B681B689BB23F
:102FF00018463B685A6813469B001344413B00FA4D
:1030000003F27B681B680A43DA62224BFB607B6831
:103010001B68214A934209D13B681B68122B05D1DA
:10302000FB685B6843F48002FB685A607B681B683E
:10303000194A934223D13B681B68102B03D03B688D
:103040001B68112B1BD1FB685B6843F40002FB6813
:103050005A603B681B68102B11D1104B1B68104A3B
:10306000A2FB03239A0C13469B0013445B00BB6036
:1030700002E0BB68013BBB60BB68002BF9D17B68F9
:10308000002283F83C20002318461437BD465DF823
:10309000047B704700230140002001400400002011
:1030A00083DE1B4380B485B000AF7860794BFB6052
:1030B000FB685B6823F44032FB685A60FB685A681F
:1030C0007B685B681A43FB685A607B681B685A68B8
:1030D0007B681B6822F480725A607B681B685968A1
:1030E0007B681B691A027B681B680A435A607B680D
:1030F0001B685A687B681B6822F040725A607B68C4
:103100001B6859687B689A687B681B680A435A6029
:103110007B681B689A687B681B6822F400629A606F
:103120007B681B6899687B68DA687B681B680A4360
:103130009A607B689B6A584A934222D07B681B68DE
:103140009A687B681B6822F070629A607B681B68D3
:1031500099687B689A6A7B681B680A439A607B68F7
:103160001B689A687B681B6822F040529A607B68F3
:103170001B6899687B68DA6A7B681B680A439A60F7
:103180000FE07B681B689A687B681B6822F070629E
:103190009A607B681B689A687B681B6822F04052C3
:1031A0009A607B681B689A687B681B6822F0020241
:1031B0009A607B681B6899687B681B7E5A007B68F5
:1031C0001B680A439A607B6893F82030002B1BD061
:1031D0007B681B685A687B681B6842F400625A600F
:1031E0007B681B685A687B681B6822F460425A60DF
:1031F0007B681B6859687B685B6A013B5A037B6884
:103200001B680A435A6007E07B681B685A687B6842
:103210001B6822F400625A607B681B68DA6A7B686C
:103220001B6822F47002DA627B681B68D96A7B68CB
:10323000DB69013B1A057B681B680A43DA627B681D
:103240001B689A687B681B6822F400729A607B682E
:103250001B6899687B6893F830305A027B681B685A
:103260000A439A607B681B689A687B681B6822F433
:1032700080629A607B681B6899687B685B699A02C8
:103280007B681B680A439A6000BF1437BD465DF82F
:10329000047B7047002301400100000F80B485B01B
:1032A00000AF78607B6803F00703FB600C4BDB68C2
:1032B000BB60BA684FF6FF031340BB60FB681A029D
:1032C000BB68134343F0BF6343F40033BB60044A5D
:1032D000BB68D36000BF1437BD465DF8047B704700
:1032E00000ED00E080B400AF044BDB681B0A03F084
:1032F00007031846BD465DF8047B704700ED00E00B
:1033000080B483B000AF0346FB7197F90730002B00
:103310000BDBFB7903F01F02074997F907305B09C4
:10332000012000FA02F241F8232000BF0C37BD460D
:103330005DF8047B704700BF00E100E080B483B01B
:1033400000AF03463960FB7197F90730002B0ADBA9
:103350003B68DAB20C4997F907301201D2B20B443C
:1033600083F800230AE03B68DAB20849FB7903F0EE
:103370000F03043B1201D2B20B441A7600BF0C3784
:10338000BD465DF8047B704700E100E000ED00E021
:1033900080B489B000AFF860B9607A60FB6803F070
:1033A0000703FB61FB69C3F10703042B28BF042358
:1033B000BB61FB690433062B02D9FB69033B00E0C8
:1033C00000237B614FF0FF32BB6902FA03F3DA435B
:1033D000BB681A407B699A404FF0FF317B6901FA64
:1033E00003F3D9437B680B40134318462437BD468B
:1033F0005DF8047B7047000080B582B000AF786054
:103400007B68013BB3F1807F01D301230FE00A4ABF
:103410007B68013B53600F214FF0FF30FFF78EFFB9
:10342000054B00229A60044B07221A6000231846BD
:103430000837BD4680BD00BF10E000E080B582B017
:1034400000AF78607868FFF729FF00BF0837BD46F6
:1034500080BD80B586B000AF0346B9607A60FB736B
:1034600000237B61FFF73EFF78617A68B96878696D
:10347000FFF78EFF024697F90F3011461846FFF707
:103480005DFF00BF1837BD4680BD80B582B000AF7C
:103490000346FB7197F907301846FFF731FF00BF6D
:1034A0000837BD4680BD80B582B000AF78607868CF
:1034B000FFF7A2FF034618460837BD4680BD00004F
:1034C00080B489B000AF7860396000237B6100234D
:1034D0003B610023BB610023FB6159E10122FB69D1
:1034E00002FA03F37B613B681B687A6913403B6116
:1034F0003A697B699A4240F048813B685B6803F017
:103500000303012B05D03B685B6803F00303022B28
:1035100030D17B689B68BB61FB695B00032202FAC8
:1035200003F3DB43BA691340BB613B68DA68FB69AC
:103530005B0002FA03F3BA691343BB617B68BA69A3
:103540009A607B685B68BB610122FB6902FA03F346
:10355000DB43BA691340BB613B685B681B0903F03E
:103560000102FB6902FA03F3BA691343BB617B688A
:10357000BA695A603B685B6803F00303032B17D0FA
:103580007B68DB68BB61FB695B00032202FA03F323
:10359000DB43BA691340BB613B689A68FB695B0017
:1035A00002FA03F3BA691343BB617B68BA69DA6054
:1035B0003B685B6803F00303022B23D1FB69DA0845
:1035C0007B68083253F82230BB61FB6903F00703C4
:1035D0009B000F2202FA03F3DB43BA691340BB617D
:1035E0003B681A69FB6903F007039B0002FA03F3C7
:1035F000BA691343BB61FB69DA087B680832B969B1
:1036000043F822107B681B68BB61FB695B000322E7
:1036100002FA03F3DB43BA691340BB613B685B68A2
:1036200003F00302FB695B0002FA03F3BA69134378
:10363000BB617B68BA691A603B685B6803F08053C2
:10364000002B00F0A2800023FB60574B5B6C564AB6
:1036500043F480435364544B5B6C03F48043FB603E
:10366000FB68524AFB699B08023352F82330BB6166
:10367000FB6903F003039B000F2202FA03F3DB4311
:10368000BA691340BB617B68494A934219D07B6891
:10369000484A934213D07B68474A93420DD07B68D7
:1036A000464A934207D07B68454A934201D104239E
:1036B00008E0072306E0032304E0022302E00123DD
:1036C00000E00023FA6902F0030292009340BA6915
:1036D0001343BB613549FB699B080233BA6941F862
:1036E0002320384B1B68BB613B69DB43BA6913403D
:1036F000BB613B685B6803F48033002B03D0BA697D
:103700003B691343BB612F4ABB6913602D4B5B6858
:10371000BB613B69DB43BA691340BB613B685B68D3
:1037200003F40033002B03D0BA693B691343BB6138
:10373000244ABB695360234B9B68BB613B69DB43F5
:10374000BA691340BB613B685B6803F48013002BCC
:1037500003D0BA693B691343BB611A4ABB699360E2
:10376000184BDB68BB613B69DB43BA691340BB6143
:103770003B685B6803F40013002B03D0BA693B6914
:103780001343BB610F4ABB69D360FB690133FB6123
:10379000FB690F2B7FF6A2AE00BF00BF2437BD46EA
:1037A0005DF8047B704700BF0038024000380140DC
:1037B000000002400004024000080240000C0240E9
:1037C00000100240003C014080B485B000AF78603A
:1037D0000B467B807B681A697B881340002B02D0E4
:1037E0000123FB7301E00023FB73FB7B18461437B6
:1037F000BD465DF8047B704780B483B000AF78604D
:103800000B467B8013467B707B78002B03D07A8835
:103810007B689A6103E07B881A047B689A6100BF29
:103820000C37BD465DF8047B7047000080B582B060
:1038300000AF0346FB80084B5A69FB881340002BFE
:1038400006D0054AFB885361FB881846FEF790FABC
:1038500000BF0837BD4680BD003C014080B586B042
:1038600000AF78607B68002B01D1012364E27B68A4
:103870001B6803F00103002B75D0A34B9B6803F07A
:103880000C03042B0CD0A04B9B6803F00C03082BFB
:1038900012D19D4B5B6803F48003B3F5800F0BD10D
:1038A000994B1B6803F40033002B5BD07B685B688B
:1038B000002B57D101233FE27B685B68B3F5803F63
:1038C00006D1914B1B68904A43F4803313601DE08E
:1038D0007B685B68B3F5A02F0CD18B4B1B688A4AC1
:1038E00043F480231360884B1B68874A43F480337A
:1038F00013600BE0844B1B68834A23F4803313600E
:10390000814B1B68804A23F4802313607B685B68CB
:10391000002B13D0FFF7E4F8386108E0FFF7E0F878
:1039200002463B69D31A642B01D9032304E2764B88
:103930001B6803F40033002BF0D014E0FFF7D0F83D
:10394000386108E0FFF7CCF802463B69D31A642BD4
:1039500001D90323F0E16C4B1B6803F40033002B07
:10396000F0D100E000BF7B681B6803F00203002B6E
:1039700063D0654B9B6803F00C03002B0BD0624BAC
:103980009B6803F00C03082B1CD15F4B5B6803F4AE
:103990008003002B16D15C4B1B6803F00203002B45
:1039A00005D07B68DB68012B01D00123C4E1564BB5
:1039B0001B6823F0F8027B681B69DB005249134344
:1039C0000B603AE07B68DB68002B20D04F4B012274
:1039D0001A60FFF785F8386108E0FFF781F80246C2
:1039E0003B69D31A022B01D90323A5E1464B1B687F
:1039F00003F00203002BF0D0434B1B6823F0F802C6
:103A00007B681B69DB00404913430B6015E03F4BAB
:103A100000221A60FFF764F8386108E0FFF760F8E9
:103A200002463B69D31A022B01D9032384E1364BAA
:103A30001B6803F00203002BF0D17B681B6803F0C6
:103A40000803002B30D07B685B69002B16D0304B0D
:103A500001221A60FFF744F8386108E0FFF740F8E8
:103A600002463B69D31A022B01D9032364E1264B9A
:103A70005B6F03F00203002BF0D015E0244B002213
:103A80001A60FFF72DF8386108E0FFF729F80246C1
:103A90003B69D31A022B01D903234DE11A4B5B6F0B
:103AA00003F00203002BF0D17B681B6803F00403D2
:103AB000002B00F0A0800023FB75134B1B6C03F060
:103AC0008053002B0FD10023BB600F4B1B6C0E4AA1
:103AD00043F0805313640C4B1B6C03F08053BB60AA
:103AE000BB680123FB750B4B1B6803F48073002B31
:103AF00021D1084B1B68074A43F480731360FEF71B
:103B0000EFFF386111E000BF00380240000047427B
:103B1000800E474200700040FEF7E2FF02463B691C
:103B2000D31A022B01D9032306E1854B1B6803F44A
:103B30008073002BF0D07B689B68012B06D1814BF2
:103B40001B6F804A43F0010313671CE07B689B688E
:103B5000052B0CD17B4B1B6F7A4A43F00403136790
:103B6000784B1B6F774A43F0010313670BE0754BEB
:103B70001B6F744A23F001031367724B1B6F714A6A
:103B800023F0040313677B689B68002B15D0FEF7B6
:103B9000A7FF38610AE0FEF7A3FF02463B69D31A8C
:103BA00041F28832934201D90323C5E0654B1B6F74
:103BB00003F00203002BEED014E0FEF791FF386112
:103BC0000AE0FEF78DFF02463B69D31A41F28832C4
:103BD000934201D90323AFE05A4B1B6F03F002035A
:103BE000002BEED1FB7D012B05D1564B1B6C554AAA
:103BF00023F0805313647B689B69002B00F09B804B
:103C0000504B9B6803F00C03082B5CD07B689B69CE
:103C1000022B41D14C4B00221A60FEF761FF386144
:103C200008E0FEF75DFF02463B69D31A022B01D97B
:103C3000032381E0434B1B6803F00073002BF0D19A
:103C40007B68DA697B681B6A1A437B685B6A9B0145
:103C50001A437B689B6A5B08013B1B041A437B6821
:103C6000DB6A1B06374913434B60374B01221A604E
:103C7000FEF736FF386108E0FEF732FF02463B6987
:103C8000D31A022B01D9032356E02E4B1B6803F0F5
:103C90000073002BF0D04EE02B4B00221A60FEF791
:103CA0001FFF386108E0FEF71BFF02463B69D31A8D
:103CB000022B01D903233FE0224B1B6803F0007362
:103CC000002BF0D137E07B689B69012B01D10123E8
:103CD00032E01C4B5B68FB607B689B69012B28D042
:103CE000FB6803F480027B68DB699A4221D1FB68A0
:103CF00003F03F027B681B6A9A421AD1FA6847F6C2
:103D0000C07313407A68526A9201934211D1FB68E2
:103D100003F440327B689B6A5B08013B1B049A42B8
:103D200007D1FB6803F070627B68DB6A1B069A426E
:103D300001D0012300E0002318461837BD4680BD9E
:103D400000700040003802406000474280B584B0F7
:103D500000AF786039607B68002B01D10123CCE093
:103D6000684B1B6803F007033A689A420CD9654B0D
:103D70003A68D2B21A70634B1B6803F007033A68C3
:103D80009A4201D00123B8E07B681B6803F002036C
:103D9000002B20D07B681B6803F00403002B05D0A8
:103DA000594B9B68584A43F4E05393607B681B6807
:103DB00003F00803002B05D0534B9B68524A43F491
:103DC00060439360504B9B6823F0F0027B689B68D4
:103DD0004D4913438B607B681B6803F00103002B84
:103DE00044D07B685B68012B07D1474B1B6803F409
:103DF0000033002B19D101237FE07B685B68022B25
:103E000003D07B685B68032B07D13F4B1B6803F033
:103E10000073002B09D101236FE03B4B1B6803F0BB
:103E20000203002B01D1012367E0374B9B6823F08D
:103E300003027B685B68344913438B60FEF750FED6
:103E4000F8600AE0FEF74CFE0246FB68D31A41F226
:103E50008832934201D903234FE02B4B9B6803F038
:103E60000C027B685B689B009A42EBD1254B1B6878
:103E700003F007033A689A420CD2224B3A68D2B256
:103E80001A70204B1B6803F007033A689A4201D06E
:103E9000012332E07B681B6803F00403002B08D089
:103EA000194B9B6823F4E0527B68DB681649134387
:103EB0008B607B681B6803F00803002B09D0124B52
:103EC0009B6823F460427B681B69DB000E49134347
:103ED0008B6000F021F802460B4B9B681B0903F036
:103EE0000F030A49CB5C22FA03F3094A1360094B1A
:103EF0001B681846FEF7B0FD002318461037BD4674
:103F000080BD00BF003C024000380240CC9A00084F
:103F10000400002008000020B0B584B000AF0021EC
:103F200079600021F960002139600021B9605249AF
:103F3000896801F00C0108290DD0082900F294804D
:103F4000002902D0042903D08EE04C4BBB608EE0E8
:103F50004B4BBB608BE04849496801F03F017960F9
:103F60004549496801F48001002924D04249496843
:103F7000890908464FF0000140F2FF144FF0000598
:103F800000EA040201EA05033D4901FB03F00021B8
:103F900001FB02F144183A49A2FB010163181946DA
:103FA0007B681A464FF00003FCF776FE02460B468C
:103FB0001346FB604AE0304B5B689B091A464FF0A2
:103FC000000340F2FF104FF0000102EA000403EA90
:103FD0000105204629464FF000024FF000034B0137
:103FE00043EAD063420110461946001B61EB05010C
:103FF0004FF000024FF000038B0143EA906382010F
:10400000121A63EB01034FF000004FF00001D900DA
:1040100041EA5271D00002460B46121945EB0303E8
:104020004FF000004FF00001990241EA92519002D6
:1040300002460B46104619467B681A464FF00003AD
:10404000FCF72AFE02460B461346FB600A4B5B68F0
:104050001B0C03F0030301335B003B60FA683B6811
:10406000B2FBF3F3BB6002E0044BBB6000BFBB6874
:1040700018461037BD46B0BD003802400024F40099
:1040800040787D0180B400AF034B1B681846BD46E5
:104090005DF8047B704700BF0400002080B582B04B
:1040A00000AF78607B68002B01D1012341E07B6881
:1040B00093F83D30DBB2002B06D17B68002283F8F9
:1040C0003C207868FEF78CFA7B68022283F83D205A
:1040D0007B681A687B6804331946104600F006FDB9
:1040E0007B68012283F846207B68012283F83E200A
:1040F0007B68012283F83F207B68012283F84020FF
:104100007B68012283F841207B68012283F84220EA
:104110007B68012283F843207B68012283F84420D6
:104120007B68012283F845207B68012283F83D20CB
:10413000002318460837BD4680BD000080B485B016
:1041400000AF78607B6893F83D30DBB2012B01D083
:10415000012344E07B68022283F83D207B681B68D2
:10416000DA687B681B6842F00102DA607B681B68D2
:104170001E4A934218D07B681B68B3F1804F13D05E
:104180007B681B681A4A93420ED07B681B68194AE9
:10419000934209D07B681B68174A934204D07B681E
:1041A0001B68164A934211D17B681B689B6803F019
:1041B0000703FB60FB68062B10D07B681B681A683E
:1041C0007B681B6842F001021A6007E07B681B688D
:1041D0001A687B681B6842F001021A6000231846C7
:1041E0001437BD465DF8047B704700BF00000140F6
:1041F0000004004000080040000C00400040014066
:1042000080B582B000AF78607B68002B01D10123BC
:1042100041E07B6893F83D30DBB2002B06D17B6830
:10422000002283F83C20786800F039F87B6802228D
:1042300083F83D207B681A687B6804331946104672
:1042400000F054FC7B68012283F846207B68012241
:1042500083F83E207B68012283F83F207B6801229F
:1042600083F840207B68012283F841207B6801228B
:1042700083F842207B68012283F843207B68012277
:1042800083F844207B68012283F845207B68012263
:1042900083F83D20002318460837BD4680BD80B412
:1042A00083B000AF786000BF0C37BD465DF8047B7B
:1042B000704780B582B000AF78607B68002B01D179
:1042C000012341E07B6893F83D30DBB2002B06D13F
:1042D0007B68002283F83C20786800F039F87B681E
:1042E000022283F83D207B681A687B6804331946F4
:1042F000104600F0FBFB7B68012283F846207B68B8
:10430000012283F83E207B68012283F83F207B68EE
:10431000012283F840207B68012283F841207B68DA
:10432000012283F842207B68012283F843207B68C6
:10433000012283F844207B68012283F845207B68B2
:10434000012283F83D20002318460837BD4680BD72
:1043500080B483B000AF786000BF0C37BD465DF815
:10436000047B704780B584B000AF786039603B68EB
:10437000002B09D17B6893F83E30DBB2012B14BFD0
:1043800001230023DBB222E03B68042B09D17B68C8
:1043900093F83F30DBB2012B14BF01230023DBB2C3
:1043A00015E03B68082B09D17B6893F84030DBB2FD
:1043B000012B14BF01230023DBB208E07B6893F8D4
:1043C0004130DBB2012B14BF01230023DBB2002BF1
:1043D00001D0012368E03B68002B04D17B680222F6
:1043E00083F83E2013E03B68042B04D17B68022253
:1043F00083F83F200BE03B68082B04D17B68022246
:1044000083F8402003E07B68022283F841207B6828
:104410001B6801223968184600F00EFE7B681B6895
:10442000234A934207D17B681B685A6C7B681B68E0
:1044300042F400425A647B681B681D4A934218D0BC
:104440007B681B68B3F1804F13D07B681B68194AE7
:1044500093420ED07B681B68174A934209D07B6851
:104460001B68164A934204D07B681B68144A934227
:1044700011D17B681B689B6803F00703FB60FB6836
:10448000062B10D07B681B681A687B681B6842F09B
:1044900001021A6007E07B681B681A687B681B686A
:1044A00042F001021A60002318461037BD4680BD55
:1044B000000001400004004000080040000C0040E3
:1044C0000040014080B582B000AF78607B681B6817
:1044D0001B6903F00203022B22D17B681B68DB6897
:1044E00003F00203022B1BD17B681B686FF00202F2
:1044F0001A617B6801221A777B681B689B6903F04D
:104500000303002B03D0786800F0D2FA05E0786846
:1045100000F0C4FA786800F0D5FA7B6800221A77B8
:104520007B681B681B6903F00403042B22D17B68A2
:104530001B68DB6803F00403042B1BD17B681B683A
:104540006FF004021A617B6802221A777B681B688D
:104550009B6903F44073002B03D0786800F0A8FA3D
:1045600005E0786800F09AFA786800F0ABFA7B68AA
:1045700000221A777B681B681B6903F00803082B6D
:1045800022D17B681B68DB6803F00803082B1BD172
:104590007B681B686FF008021A617B6804221A7737
:1045A0007B681B68DB6903F00303002B03D078688A
:1045B00000F07EFA05E0786800F070FA786800F0A4
:1045C00081FA7B6800221A777B681B681B6903F0FD
:1045D0001003102B22D17B681B68DB6803F01003EB
:1045E000102B1BD17B681B686FF010021A617B686F
:1045F00008221A777B681B68DB6903F44073002B81
:1046000003D0786800F054FA05E0786800F046FAC4
:10461000786800F057FA7B6800221A777B681B687D
:104620001B6903F00103012B0ED17B681B68DB685B
:1046300003F00103012B07D17B681B686FF00102B7
:104640001A61786800F020FA7B681B681B6903F028
:104650008003802B0ED17B681B68DB6803F080032E
:10466000802B07D17B681B686FF080021A61786825
:1046700000F080FD7B681B681B6903F04003402B42
:104680000ED17B681B68DB6803F04003402B07D129
:104690007B681B686FF040021A61786800F01CFAB2
:1046A0007B681B681B6903F02003202B0ED17B68FD
:1046B0001B68DB6803F02003202B07D17B681B6895
:1046C0006FF020021A61786800F04AFD00BF0837D9
:1046D000BD4680BD80B584B000AFF860B9607A6037
:1046E000FB6893F83C30012B01D1022346E0FB68C4
:1046F000012283F83C207B680C2B39D801A252F8A8
:1047000023F000BF394700087147000871470008CF
:1047100071470008474700087147000871470008C3
:1047200071470008554700087147000871470008A5
:104730007147000863470008FB681B68B9681846A2
:1047400000F054FA15E0FB681B68B968184600F0E1
:10475000B3FA0EE0FB681B68B968184600F018FB56
:1047600007E0FB681B68B968184600F07BFB00E0B7
:1047700000BFFB68002283F83C2000231846103756
:10478000BD4680BD80B584B000AFF860B9607A6086
:10479000FB6893F83C30012B01D10223ACE0FB68AD
:1047A000012283F83C207B680C2B00F29F8001A241
:1047B00052F823F0E9470008ED480008ED480008EA
:1047C000ED48000829480008ED480008ED480008B9
:1047D000ED4800086B480008ED480008ED48000867
:1047E000ED480008AB480008FB681B68B96818462C
:1047F00000F0FCF9FB681B689A69FB681B6842F0D3
:1048000008029A61FB681B689A69FB681B6822F0C2
:1048100004029A61FB681B689969BB681A69FB68A6
:104820001B680A439A6162E0FB681B68B968184616
:1048300000F042FAFB681B689A69FB681B6842F447
:1048400000629A61FB681B689A69FB681B6822F426
:1048500080629A61FB681B689969BB681B691A02D0
:10486000FB681B680A439A6141E0FB681B68B968F2
:10487000184600F08DFAFB681B68DA69FB681B6854
:1048800042F00802DA61FB681B68DA69FB681B68A2
:1048900022F00402DA61FB681B68D969BB681A69F7
:1048A000FB681B680A43DA6121E0FB681B68B96892
:1048B000184600F0D7FAFB681B68DA69FB681B68CA
:1048C00042F40062DA61FB681B68DA69FB681B6806
:1048D00022F48062DA61FB681B68D969BB681B69D6
:1048E0001A02FB681B680A43DA6100E000BFFB683C
:1048F000002283F83C20002318461037BD4680BDB7
:1049000080B584B000AF786039607B6893F83C3044
:10491000012B01D10223B3E07B68012283F83C2004
:104920007B68022283F83D207B681B689B68FB60E4
:10493000FB6823F07703FB60FB6823F47F43FB6095
:104940007B681B68FA689A603B681B68B3F5005F78
:104950003ED0B3F5005F00F28780B3F5805F00F0D2
:104960008580B3F5805F7FD8702B1AD0702B7BD8F1
:10497000602B50D0602B77D8502B3CD0502B73D865
:10498000402B58D0402B6FD8302B64D0302B6BD8B5
:10499000202B60D0202B67D8002B5CD0102B5AD056
:1049A00062E07B6818683B6899683B685A683B68B6
:1049B000DB6800F021FB7B681B689B68FB60FB6881
:1049C00043F07703FB607B681B68FA689A604EE0EF
:1049D0007B6818683B6899683B685A683B68DB6885
:1049E00000F00AFB7B681B689A687B681B6842F4CE
:1049F00080429A603BE07B6818683B6859683B6876
:104A0000DB681A4600F07EFA7B681B685021184666
:104A100000F0D7FA2BE07B6818683B6859683B6860
:104A2000DB681A4600F09DFA7B681B686021184617
:104A300000F0C7FA1BE07B6818683B6859683B6860
:104A4000DB681A4600F05EFA7B681B684021184656
:104A500000F0B7FA0BE07B681A683B681B681946E0
:104A6000104600F0AEFA02E000BF00E000BF7B6835
:104A7000012283F83D207B68002283F83C2000233C
:104A800018461037BD4680BD80B483B000AF786053
:104A900000BF0C37BD465DF8047B704780B483B01F
:104AA00000AF786000BF0C37BD465DF8047B7047EF
:104AB00080B483B000AF786000BF0C37BD465DF8AE
:104AC000047B704780B483B000AF786000BF0C37C0
:104AD000BD465DF8047B704780B483B000AF78605A
:104AE00000BF0C37BD465DF8047B704780B485B0CD
:104AF00000AF786039607B681B68FB607B68344A74
:104B000093420FD07B68B3F1804F0BD07B68314A62
:104B1000934207D07B68304A934203D07B682F4A88
:104B2000934208D1FB6823F07003FB603B685B682D
:104B3000FA681343FB607B68254A93421BD07B686D
:104B4000B3F1804F17D07B68224A934213D07B6821
:104B5000214A93420FD07B68204A93420BD07B6856
:104B60001F4A934207D07B681E4A934203D07B685A
:104B70001D4A934208D1FB6823F44073FB603B68F5
:104B8000DB68FA681343FB60FB6823F080023B6834
:104B90005B691343FB607B68FA681A603B689A683C
:104BA0007B68DA623B681A687B689A627B68084AAD
:104BB000934203D13B681A697B681A637B680122C0
:104BC0005A6100BF1437BD465DF8047B704700BFD3
:104BD000000001400004004000080040000C0040BC
:104BE00000400140004401400048014080B487B0CB
:104BF00000AF786039607B681B6A23F001027B6834
:104C00001A627B681B6A7B617B685B683B617B68BF
:104C10009B69FB60FB6823F07003FB60FB6823F07B
:104C20000303FB603B681B68FA681343FB607B6906
:104C300023F002037B613B689B687A6913437B61C5
:104C40007B681C4A93420CD17B6923F008037B618B
:104C50003B68DB687A6913437B617B6923F004035B
:104C60007B617B68134A934211D13B6923F48073C3
:104C70003B613B6923F400733B613B685B693A69C4
:104C800013433B613B689B693A6913433B617B6813
:104C90003A695A607B68FA689A613B685A687B682F
:104CA0005A637B687A691A6200BF1C37BD465DF89B
:104CB000047B70470000014080B487B000AF78608B
:104CC00039607B681B6A23F010027B681A627B687C
:104CD0001B6A7B617B685B683B617B689B69FB60EF
:104CE000FB6823F4E043FB60FB6823F44073FB6044
:104CF0003B681B681B02FA681343FB607B6923F067
:104D000020037B613B689B681B017A6913437B61CD
:104D10007B681E4A93420DD17B6923F080037B613F
:104D20003B68DB681B017A6913437B617B6923F075
:104D300040037B617B68154A934213D13B6923F49E
:104D400080633B613B6923F400633B613B685B69C3
:104D50009B003A6913433B613B689B699B003A693E
:104D600013433B617B683A695A607B68FA689A61D1
:104D70003B685A687B689A637B687A691A6200BFED
:104D80001C37BD465DF8047B704700BF0000014042
:104D900080B487B000AF786039607B681B6A23F409
:104DA00080727B681A627B681B6A7B617B685B68C8
:104DB0003B617B68DB69FB60FB6823F07003FB6091
:104DC000FB6823F00303FB603B681B68FA6813432E
:104DD000FB607B6923F400737B613B689B681B026B
:104DE0007A6913437B617B681D4A93420DD17B69CD
:104DF00023F400637B613B68DB681B027A69134321
:104E00007B617B6923F480637B617B68144A9342F6
:104E100013D13B6923F480533B613B6923F4005376
:104E20003B613B685B691B013A6913433B613B682B
:104E30009B691B013A6913433B617B683A695A607D
:104E40007B68FA68DA613B685A687B68DA637B687A
:104E50007A691A6200BF1C37BD465DF8047B704753
:104E60000000014080B487B000AF786039607B6893
:104E70001B6A23F480527B681A627B681B6A3B6161
:104E80007B685B687B617B68DB69FB60FB6823F4A4
:104E9000E043FB60FB6823F44073FB603B681B68E6
:104EA0001B02FA681343FB603B6923F400533B6128
:104EB0003B689B681B033A6913433B617B68104A5C
:104EC000934209D17B6923F480437B613B685B6932
:104ED0009B017A6913437B617B687A695A607B68BE
:104EE000FA68DA613B685A687B681A647B683A69D9
:104EF0001A6200BF1C37BD465DF8047B704700BFD7
:104F00000000014080B487B000AFF860B9607A60FB
:104F1000FB681B6A7B61FB681B6A23F00102FB686C
:104F20001A62FB689B693B613B6923F0F0033B61BC
:104F30007B681B013A6913433B617B6923F00A03D9
:104F40007B617A69BB6813437B61FB683A699A614C
:104F5000FB687A691A6200BF1C37BD465DF8047BA6
:104F6000704780B487B000AFF860B9607A60FB68C2
:104F70001B6A23F01002FB681A62FB689B697B6165
:104F8000FB681B6A3B617B6923F470437B617B6830
:104F90001B037A6913437B613B6923F0A0033B61E8
:104FA000BB681B013A6913433B61FB687A699A61EC
:104FB000FB683A691A6200BF1C37BD465DF8047B86
:104FC000704780B485B000AF786039607B689B68BB
:104FD000FB60FB6823F07003FB603A68FB681343D7
:104FE00043F00703FB607B68FA689A6000BF1437E0
:104FF000BD465DF8047B704780B487B000AFF860B1
:10500000B9607A603B60FB689B687B617B6923F4D5
:105010007F437B613B681A027B681A43BB6813437A
:105020007A6913437B61FB687A699A6000BF1C3719
:10503000BD465DF8047B704780B487B000AFF86070
:10504000B9607A60BB6803F01F03012202FA03F320
:105050007B61FB681A6A7B69DB431A40FB681A6252
:10506000FB681A6ABB6803F01F03796801FA03F34F
:105070001A43FB681A6200BF1C37BD465DF8047B0B
:105080007047000080B485B000AF786039607B68FD
:1050900093F83C30012B01D1022350E07B680122C0
:1050A00083F83C207B68022283F83D207B681B68E4
:1050B0005B68FB607B681B689B68BB60FB6823F0D8
:1050C0007003FB603B681B68FA681343FB607B68F6
:1050D0001B68FA685A607B681B681C4A934218D0A8
:1050E0007B681B68B3F1804F13D07B681B68184A3C
:1050F00093420ED07B681B68164A934209D07B68A6
:105100001B68154A934204D07B681B68134A93427C
:105110000CD1BB6823F08003BB603B685B68BA6856
:105120001343BB607B681B68BA689A607B68012286
:1051300083F83D207B68002283F83C20002318463A
:105140001437BD465DF8047B704700BF0000014086
:105150000004004000080040000C004000400140F6
:1051600080B483B000AF786000BF0C37BD465DF8F7
:10517000047B704780B483B000AF786000BF0C3709
:10518000BD465DF8047B7047014B1868704700BF4F
:105190001000002070B50D4D0D4C641BA4100026AE
:1051A000A64209D10B4D0C4C04F066FC641BA41004
:1051B0000026A64205D170BD55F8043B984701363C
:1051C000EEE755F8043B98470136F2E79C9F00084C
:1051D0009C9F00089C9F0008A09F00080244034673
:1051E000934200D1704703F8011BF9E72DE9FF470F
:1051F00055EC104B002D0E4619462B46BBBF05F152
:1052000000431D4600232D230B700D9BDDF830A0BD
:10521000914623F02008BCBF22461446B8F1460F41
:1052200005D0B8F1450F00D10136022100E003217D
:1052300003AB019302AB009345EC104B534632464F
:1052400001F0D6FDB8F1470F074602D119F0010F62
:1052500022D0B8F1460F07EB060910D13B78302B6E
:105260000AD10022002320462946FBF735FC18B955
:10527000C6F10106CAF80060DAF80030994400224D
:10528000002320462946FBF727FC08B1CDF80C90F7
:105290003022039B4B4507D3039B0E9ADB1B3846FA
:1052A000136004B0BDE8F087591C03911A70F0E751
:1052B000F7B503460029B8BF494203F8022BB4BF33
:1052C0002D222B22092942702ADD0DF10704A44664
:1052D0000A27A6460A4691FBF7F607FB1615303556
:1052E000632A04F1FF340EF8015C3146F1DC303101
:1052F000AEF1020504F8011C441C294661450AD39D
:105300000DF10902A2EB0E02654588BF002213448D
:10531000181A03B0F0BD11F8012B04F8012FEDE7C6
:10532000302330318370C170031DF1E72DE9F04F58
:105330002DED028B8DB00C46DDF8608016461F46C1
:10534000054602F0B1FED0F800A05046FAF748FF3B
:1053500000230A9323680593D8F8003094F818B016
:10536000073323F0070303F10802C8F80020D3E94C
:105370000023C4E91223D4E9128929F000430793DA
:10538000CDF8188008EE100A9F4BDDE906014FF0BA
:10539000FF32FBF7D3FB88BBDDE906019A4B4FF0E8
:1053A000FF32FBF7ADFB48BB0022002340464946D5
:1053B000FBF79CFB10B12D2384F84330934B9448AA
:1053C000BBF1470F94BF9846804603232361059B9A
:1053D00023F0040222604FF00009009733460BAA25
:1053E0002146284600F0D8F9013040F090804FF077
:1053F000FF300DB0BDEC028BBDE8F08F42464B464E
:1054000040464946FBF79AFB40B14B46002BBCBFD8
:105410002D2384F843307F487F4BD1E763680BF03E
:10542000DF0206925A1C3FD106236360059B616828
:1054300043F48062002303930AABCDE901B309ABC7
:1054400049EC108B009322600DF123032846FFF7EF
:10545000CDFE069B0999472B804608D1C81C02DB6C
:105460006368994241DDABF1020B5FFA8BFBBBF144
:10547000650F20D801395A4604F150000991FFF711
:1054800017FF0A9A1318012A8146236102DC226859
:10549000D20701D5013323619DF82330002B9CD026
:1054A0002D2384F8433098E7069A472ABED1002B73
:1054B000BCD10123B9E7BBF1660F18D1002963689D
:1054C0000BDD216113B92268D00702D501330B44EB
:1054D0002361A1654FF00009DEE713B92268D20706
:1054E00001D50233F4E70123F2E74FF0670B0A9B83
:1054F000994205DB23682161D807EAD54B1CE7E711
:105500000029D4BFC1F1020201221344E0E723685D
:105510005A0507D42369424631462846B847013028
:105520002CD164E7BBF1650F40F2E080D4E91201B1
:1055300000220023FBF7D0FA002834D0374A012399
:1055400031462846B84701303FF451AFDDE9092321
:105550009A4202DB2368D80710D518EE103A52465B
:1055600031462846B84701303FF441AF4FF00008BC
:1055700004F11A090A9B013B434509DC23689B0798
:1055800000F10581E0680B9B9842B8BF184630E7F0
:1055900001234A4631462846B84701303FF427AF39
:1055A00008F10108E6E7099B002B39DC1B4A0123BF
:1055B00031462846B84701303FF419AFDDE90923E9
:1055C000134302D12368D907D8D518EE103A5246B2
:1055D00031462846B84701303FF409AF4FF0000983
:1055E00004F11A0A099B5B424B4501DC0A9B92E7D6
:1055F0000123524631462846B84701303FF4F7AE02
:1056000009F10109EEE700BFFFFFEF7FE09A000814
:10561000E49A0008EC9A0008E89A0008F09A00085A
:105620000A9AA36D9A42A8BF1A46002A914637DC0F
:105630004FF0000B29EAE97904F11A02A36D0593F2
:10564000A3EB09035B4533DCDDE909239A423BDB2D
:105650002368DA0738D40A9A059B0999D31AA2EB72
:1056600001099945A8BF9946B9F1000F35DC4FF003
:10567000000829EAE97904F11A0ADDE909239B1AED
:10568000A3EB090343457FF779AF01235246314627
:105690002846B84701303FF4AAAE08F10108ECE70C
:1056A0001346314642462846B8470130C0D19EE6EF
:1056B0000123314628460592B84701303FF497AEA2
:1056C000059A0BF1010BB9E718EE103A5246314634
:1056D0002846B8470130BED189E6059A4B46424478
:1056E00031462846B8470130C1D180E60A9A012ADE
:1056F00001DCDB0738D50123424631462846B8474E
:1057000001303FF474AE18EE103A52463146284646
:10571000B84701303FF46BAED4E9120100220023F8
:10572000FBF7DAF9D8B90A9B08F10102013B3146CF
:105730002846B84701300ED159E60123524631467A
:105740002846B84701303FF452AE08F101080A9BE1
:10575000013B4345F1DC4B4604F15002DCE64FF0DF
:10576000000804F11A0AF2E701234246DFE70123A9
:105770004A4631462846B84701303FF438AE08F172
:105780000108E3680B995B1A4345F0DCFAE64FF039
:10579000000804F11909F4E72DE9F0471646994687
:1057A0008A680B69DDF820809342B8BF13463360E6
:1057B00091F8432007460C460AB101333360236851
:1057C000990642BF336802333360256815F0060539
:1057D00006D104F1190AE36832689B1AAB4226DC51
:1057E00094F84320131E226818BF012392062BD47D
:1057F00004F1430249463846C04701301ED02368B1
:10580000E568326803F00603042B08BFAD1AA368ED
:1058100022690CBF25EAE57500259342C4BF9B1A97
:10582000ED1800261A34B5421AD1002008E00123F1
:10583000524649463846C047013003D14FF0FF3049
:10584000BDE8F0870135C6E7E1185A1C302081F821
:105850004300224494F8451082F843100233C7E70E
:105860000123224649463846C0470130E6D001367A
:10587000D9E700002DE9FF470C469146277E0C9999
:10588000782F80469A4604F1430207D8622F0AD83F
:10589000002F00F0D880582F00F0A38004F14206BA
:1058A00084F842703AE0A7F16303152BF6D801A003
:1058B00050F823F00D590008215900089D580008A0
:1058C0009D5800089D5800089D580008215900085F
:1058D0009D5800089D5800089D5800089D580008D4
:1058E0002D5A0008515900080F5A00089D58000809
:1058F0009D5800084F5A00089D580008515900084B
:105900009D5800089D580008175A00080B681A1D7A
:105910001B680A6004F1420684F842300123A3E0C8
:10592000256808682E0600F104030AD505680B6097
:10593000002D03DA2D236D4284F843305E480A239C
:1059400019E015F0400F05680B6018BF2DB2EFE7A6
:105950000B682568181D0860280601D51D6802E03F
:105960006906FBD51D8854486F2F0CBF08230A23F6
:10597000002184F843106668A660002EA2BF21684B
:1059800021F0040121600DB9002E4DD01646B5FB63
:10599000F3F103FB1157C75D06F8017D2F46BB42AB
:1059A0000D46F4D9082B0BD12368DF0708D52369EE
:1059B00061689942DEBF302306F8013C06F1FF36EC
:1059C000921B2261CDF800A04B4603AA2146404617
:1059D000FFF7E2FE01304CD14FF0FF3004B0BDE8DC
:1059E000F087354884F8457023680E681F0656F81E
:1059F000045B0E6014D5D90744BF43F02003236035
:105A00001DB9236823F0200323601023B0E7236827
:105A100043F0200323607823284884F84530E3E7E7
:105A20005E0648BFADB2E6E71646BBE70B682668E0
:105A300060691D1D0D6035061B6801D5186002E008
:105A40007106FBD51880002323611646BAE70B6860
:105A50001A1D0A601E68626800213046FAF7C8FB0A
:105A600008B1801B606063682361002384F84330C1
:105A7000A8E72369324649464046D0470130ABD0BB
:105A800023689B0713D4E068039B9842B8BF18466D
:105A9000A4E70123324649464046D04701309BD017
:105AA0000135E36803995B1AAB42F2DCEBE70025B2
:105AB00004F11906F5E700BFF29A0008039B0008FD
:105AC0002DE9F04F87B0174603938B685A1EB2F545
:105AD000AE7F83BF6FF4AE755B190293002386BF60
